:100000000C943E000C9448000C9448000C9448005A
:100010000C9448000C9448000C9448000C94480040
:100020000C9448000C9448000C9448000C94480030
:100030000C9448000C9448000C9448000C94480020
:100040000C9448000C9448000C9448000C94480010
:100050000C9448000C9448000C9448000C94480000
:100060000C9448000C9448000C9448000C944800F0
:100070000C9448000C9448000C94480011241FBEB6
:10008000CFEFD8E0DEBFCDBF0E9459010C947701BD
:100090000C94000087B18F7A87B964E086E290E023
:1000A0000E94B400882319F081E090E0089566E092
:1000B00086E290E00E94B4008111EFCF82E090E0F0
:1000C000089508959DB321E030E001C0220F8A9584
:1000D000EAF7922B9DBB0895FC01842FF894908140
:1000E00021E030E001C0220F6A95EAF7209529232C
:1000F00020830E946200E9E6F0E0808181608083D5
:1001000080818D7F808378940895FC01842FF894FA
:10011000908121E030E001C0220F6A95EAF7209536
:10012000292320830E946200E9E6F0E0808182605A
:10013000808380818E7F808378940895FC01842F52
:10014000F894908121E030E001C0220F6A95EAF72F
:100150002095292320830E946200E9E6F0E0808157
:100160008360808378940895FC01808190E0062E5E
:1001700002C0959587950A94E2F780FF0FC08FE241
:1001800095E70197F1F700C00000808190E002C080
:10019000959587956A95E2F78170089580E00895B6
:1001A0000F93FC01DA0171836083538342832483BC
:1001B00005833C9141E050E0CA0101C0880F2A95B7
:1001C000EAF701C0440F0A95EAF7842B832B8C933E
:1001D0000F910895FC01A081B1814C91858121E0AE
:1001E00030E0B90102C0660F771F8A95E2F7CB01B4
:1001F000809584238C93A081B1818C91948101C0DE
:10020000220F9A95EAF7822B8C930895FC01A08126
:10021000B1814C91848121E030E0B90102C0660FC8
:10022000771F8A95E2F7CB01809584238C93A08178
:10023000B1818C91958101C0220F9A95EAF7822BAA
:100240008C930895CF93DF93D82FC92F8FE097E237
:100250000197F1F700C000008D2F9C2F0E94EA004B
:100260008FE097E20197F1F700C000008D2F9C2FDF
:10027000DF91CF910C940601FC01A081B1814C91DA
:10028000248181E090E0BC0102C0660F771F2A95AF
:10029000E2F79B01209524232C93A081B1812C911E
:1002A000358101C0880F3A95EAF7809582238C93B7
:1002B000089500D000D000D0CDB7DEB70E944A002C
:1002C00001E020E041E250E062E270E0CE01019600
:1002D0000E94D000CE0101960E94060190E080E0CD
:1002E00026960FB6F894DEBF0FBECDBF0895F894E2
:0202F000FFCF3E
:00000001FF
