:100000000C943E000C9448000C9448000C9448005A
:100010000C9448000C9448000C9448000C94480040
:100020000C9448000C9448000C9448000C94480030
:100030000C9448000C9448000C9448000C94480020
:100040000C9448000C9448000C9448000C94480010
:100050000C9448000C9448000C9448000C94480000
:100060000C9448000C9448000C9448000C944800F0
:100070000C9448000C9448000C94480011241FBEB6
:10008000CFEFD8E0DEBFCDBF0E9498010C94A8014D
:100090000C940000CF92DF92EF92FF920F931F9388
:1000A000CF93DF9300D000D000D0CDB7DEB77C0176
:1000B00001E020E041E250E062E270E0CE01019612
:1000C0006C010E940F018601C8010E94610164E079
:1000D00086E290E00E94F300882301F1F70111828B
:1000E000C8010E942901FFEF23ED80E3F150204079
:1000F0008040E1F700C00000C8010E947B01269605
:100100000FB6F894DEBF0FBECDBFDF91CF911F9128
:100110000F91FF90EF90DF90CF90089566E086E218
:1001200090E00E94F3008111CFCF82E0F70181833C
:10013000C8010E944501D7CF0C944A00FC011082EF
:1001400008959DB321E030E001C0220F8A95EAF7BF
:10015000922B9DBB0895FC01842FF894908121E09F
:1001600030E001C0220F6A95EAF720952923208309
:100170000E94A100E9E6F0E08081816080838081B7
:100180008D7F808378940895FC01842FF89490816A
:1001900021E030E001C0220F6A95EAF7209529237B
:1001A00020830E94A100E9E6F0E0808182608083E4
:1001B00080818E7F808378940895FC01842FF89449
:1001C000908121E030E001C0220F6A95EAF7209586
:1001D000292320830E94A100E9E6F0E0808183606A
:1001E000808378940895FC01808190E0062E02C0FF
:1001F000959587950A94E2F780FF0FC08FE295E707
:100200000197F1F700C00000808190E002C0959551
:1002100087956A95E2F78170089580E008950F93BD
:10022000FC01DA0171836083538342832483058355
:100230003C9141E050E0CA0101C0880F2A95EAF7DD
:1002400001C0440F0A95EAF7842B832B8C930F91FE
:100250000895FC01A081B1814C91858121E030E0BD
:10026000B90102C0660F771F8A95E2F7CB0180952E
:1002700084238C93A081B1818C91948101C0220F41
:100280009A95EAF7822B8C930895FC01A081B181A5
:100290004C91848121E030E0B90102C0660F771FE4
:1002A0008A95E2F7CB01809584238C93A081B1815C
:1002B0008C91958101C0220F9A95EAF7822B8C933D
:1002C0000895CF93DF93D82FC92F8FE097E201973E
:1002D000F1F700C000008D2F9C2F0E9429018FE0B4
:1002E00097E20197F1F700C000008D2F9C2FDF915E
:1002F000CF910C944501FC01A081B1814C912481E6
:1003000081E090E0BC0102C0660F771F2A95E2F7FA
:100310009B01209524232C93A081B1812C913581C0
:1003200001C0880F3A95EAF7809582238C9308954F
:1003300000D0CDB7DEB787B18F7A87B91982CE01E9
:1003400001960E944A0090E080E00F900F9008957F
:04035000F894FFCF4F
:00000001FF
