:100000000C943E000C9448000C9448000C9448005A
:100010000C9448000C9448000C9448000C94480040
:100020000C9448000C9448000C9448000C94480030
:100030000C9448000C9448000C9448000C94480020
:100040000C9448000C9448000C9448000C94480010
:100050000C9448000C9448000C9448000C94480000
:100060000C9448000C9448000C9448000C944800F0
:100070000C9448000C9448000C94480011241FBEB6
:10008000CFEFD8E0DEBFCDBF0E9461020C948302A7
:100090000C9400000F93CF93DF93EC01FC01329698
:1000A00080E2DF011D928A95E9F701E020E041E25C
:1000B00050E062E270E0CE0183960E94D80118827F
:1000C0001AA2DF91CF910F9108950F931F93CF93B1
:1000D000DF93EC018C010D5D1F4FC8010E942A02C5
:1000E00064E086E290E00E9490018823A1F01982EA
:1000F000C8010E94F2012FEF83ED90E32150804070
:100100009040E1F700C00000C801DF91CF911F913E
:100110000F910C94440266E086E290E00E94900108
:100120008111DBCF82E08983C8010E940E02E3CFF8
:10013000DC011196EC911197E83098F4F0E0EB5760
:10014000FD4F92968C9192970C947D0228E0629FCD
:10015000F00111248A0F9B2F911DE80FF91F81E0F8
:1001600082838C918F5F8C930895FD01E80FF11DC0
:1001700039E0639FE00DF11D1124F1CFFD01E80F7F
:10018000F11DE60FF11DEBCF29EF2603F00111243D
:10019000EA0FFB1FE80FF11DE2CFE82FF0E038E097
:1001A000639FE019F1091124EA0FFB1FD8CF27EF55
:1001B000ECCF282F261B330BF901F6CFFD01E80FFA
:1001C000F11D37E0D6CFFF920F931F93CF93DF93AC
:1001D0000F92CDB7DEB78E010F5F1F4FC8010E948F
:1001E000AC010B98F02E012F8FE097E20197F1F709
:1001F00000C0000063E08F2D902F0E94B5019695FE
:100200008795969587959C012551310929303105AF
:1002100078F02A5031092930310550F02253310944
:100220002133310518F0C3970997F0F611E001C0AA
:1002300012E08F2D902F0E94B201812F0F90DF913D
:10024000CF911F910F91FF900895CF93DF93D82FF7
:10025000C92F0E94E300682F8D2F9C2FDF91CF9133
:100260000C949800CF93DF93D82FC92F0E9465007C
:100270008D2F9C2FDF91CF910C9425019DB321E010
:1002800030E001C0220F8A95EAF7922B9DBB0895BA
:10029000FC01842FF894908121E030E001C0220F0E
:1002A0006A95EAF72095292320830E943E01E9E61A
:1002B000F0E080818160808380818D7F808378946D
:1002C0000895FC01842FF894908121E030E001C072
:1002D000220F6A95EAF72095292320830E943E0188
:1002E000E9E6F0E080818260808380818E7F808378
:1002F00078940895FC01842FF894908121E030E0F7
:1003000001C0220F6A95EAF72095292320830E94D5
:100310003E01E9E6F0E0808183608083789408956F
:10032000FC01808190E0062E02C0959587950A9485
:10033000E2F780FF0FC08FE295E70197F1F700C069
:100340000000808190E002C0959587956A95E2F75C
:100350008170089580E0089510927C0086E8809373
:100360007A00089510927A00089580917C00807E32
:1003700080937C0080917C006770682B60937C0088
:1003800080917A00806480937A0080917A0084FF63
:10039000FCCF80917A00806180937A002091780070
:1003A0008091790090E0982F8827820F911D089501
:1003B0000F93FC01DA0171836083538342832483AA
:1003C00005833C9141E050E0CA0101C0880F2A95A5
:1003D000EAF701C0440F0A95EAF7842B832B8C932C
:1003E0000F910895FC01A081B1814C91858121E09C
:1003F00030E0B90102C0660F771F8A95E2F7CB01A2
:10040000809584238C93A081B1818C91948101C0CB
:10041000220F9A95EAF7822B8C930895FC01A08114
:10042000B1814C91848121E030E0B90102C0660FB6
:10043000771F8A95E2F7CB01809584238C93A08166
:10044000B1818C91958101C0220F9A95EAF7822B98
:100450008C930895CF93DF93D82FC92F8FE097E225
:100460000197F1F700C000008D2F9C2F0E94F20130
:100470008FE097E20197F1F700C000008D2F9C2FCD
:10048000DF91CF910C940E02FC01A081B1814C91BF
:10049000248181E090E0BC0102C0660F771F2A959D
:1004A000E2F79B01209524232C93A081B1812C910C
:1004B000358101C0880F3A95EAF7809582238C93A5
:1004C0000895CDB7DEB7A9970FB6F894DEBF0FBE7B
:1004D000CDBF87B18F7A87B9CE0101960E944A00BD
:1004E000CE0101960E94320190E080E0A9960FB6FD
:1004F000F894DEBF0FBECDBF0895EE0FFF1F05902D
:10050000F491E02D0994F894FFCFA600B500BE0049
:0A051000C400CD00D700D900DE00C2
:00000001FF
