:100000000C943E000C9448000C9448000C9448005A
:100010000C9448000C9448000C9448000C94480040
:100020000C9448000C9448000C9448000C94480030
:100030000C9448000C9448000C9448000C94480020
:100040000C9448000C9448000C9448000C94480010
:100050000C9448000C9448000C9448000C94480000
:100060000C9448000C9448000C9448000C944800F0
:100070000C9448000C9448000C94480011241FBEB6
:10008000CFEFD8E0DEBFCDBF0E94EF030C94B505E3
:100090000C9400000F93CF93DF93EC01FC01329698
:1000A00080E2DF011D928A95E9F701E020E041E25C
:1000B00050E062E270E0CE0184960E946002CE01C0
:1000C0008A960E946C03CE018B960E94340218829D
:1000D0001AA21BA20B98DF91CF910F9108950F9355
:1000E0001F93CF93DF93EC018C010C5D1F4FC80170
:1000F0000E94B20264E086E290E00E941802882327
:10010000A1F01982C8010E947A022FEF83ED90E3DB
:10011000215080409040E1F700C00000C801DF910D
:10012000CF911F910F910C94CC0266E086E290E093
:100130000E9418028111DBCF82E08983C8010E94EE
:100140009602E3CFDC011196EC911197E83098F418
:10015000F0E0E954FA4F92968C9192970C94130424
:1001600028E0629FF00111248A0F9B2F911DE80F58
:10017000F91F81E082838C918F5F8C930895FD013C
:10018000E80FF11D39E0639FE00DF11D1124F1CF5F
:10019000FD01E80FF11DE60FF11DEBCF29EF26035E
:1001A000F0011124EA0FFB1FE80FF11DE2CFE82F49
:1001B000F0E038E0639FE019F1091124EA0FFB1F1A
:1001C000D8CF27EFECCF282F261B330BF901F6CF22
:1001D000FD01E80FF11D37E0D6CFEC017C018BE289
:1001E000E80EF11CA49663E0C7010E943D028C0159
:1001F00016950795169507958034910548F4CE011C
:100200000E947A020E5211090530110560F70CC0E8
:10021000C8014097089720F4CE010E949602E3CFD0
:10022000C8014997059720F4CE010E94CC02DBCF8C
:100230000A351105C8F7E6CF0F931F93CF93DF93CD
:10024000EC018C01055D1F4F63E0C8010E943D0277
:100250008034910558F08BA18F5F8BA38230A0F37F
:1002600081E0DF91CF911F910F91089580E0F9CF48
:10027000CF92DF92FF920F931F93CF93DF93EC0106
:100280006C018AE2C80ED11CC6010E948003C6011F
:100290000E94720300E010E02CE032E4B901A801F2
:1002A000C6010E94E90206E910E01BA2CE010E94ED
:1002B0001C01F82E882391F000E010E028EC32E4D5
:1002C000B901A801C6010E94E9028F2DDF91CF91EB
:1002D0001F910F91FF90DF90CF9008958FE99FE0DD
:1002E0000197F1F700C0000001501109F1F6898172
:1002F0008730A9F08F5F898308E710E01BA2CE0149
:100300000E941C01F82E8111D7CF8FE99FE0019741
:10031000F1F700C000000150110981F7CDCF80E056
:10032000EACF1F93CF93DF93EC01898111E0811114
:1003300001C017E080E00CC0CE010E9438012FEF11
:1003400039E698E1215030409040E1F700C00000CC
:100350009981911731F0882379F3DF91CF911F9123
:1003600008958111FACFCE010E9438018823A9F3A4
:100370001983F3CFCF93DF93D82FC92F0E946F003B
:100380008D2F9C2FDF91CF910C9491019DB321E093
:1003900030E001C0220F8A95EAF7922B9DBB0895A9
:1003A000FC01842FF894908121E030E001C0220FFD
:1003B0006A95EAF72095292320830E94C601E9E681
:1003C000F0E080818160808380818D7F808378945C
:1003D0000895FC01842FF894908121E030E001C061
:1003E000220F6A95EAF72095292320830E94C601EF
:1003F000E9E6F0E080818260808380818E7F808367
:1004000078940895FC01842FF894908121E030E0E5
:1004100001C0220F6A95EAF72095292320830E94C4
:10042000C601E9E6F0E080818360808378940895D6
:10043000FC01808190E0062E02C0959587950A9474
:10044000E2F780FF0FC08FE295E70197F1F700C058
:100450000000808190E002C0959587956A95E2F74B
:100460008170089580E0089510927C0086E8809362
:100470007A00089510927A00089580917C00807E21
:1004800080937C0080917C006770682B60937C0077
:1004900080917A00806480937A0080917A0084FF52
:1004A000FCCF80917A00806180937A00209178005F
:1004B0008091790090E0982F8827820F911D0895F0
:1004C0000F93FC01DA017183608353834283248399
:1004D00005833C9141E050E0CA0101C0880F2A9594
:1004E000EAF701C0440F0A95EAF7842B832B8C931B
:1004F0000F910895FC01A081B1814C91858121E08B
:1005000030E0B90102C0660F771F8A95E2F7CB0190
:10051000809584238C93A081B1818C91948101C0BA
:10052000220F9A95EAF7822B8C930895FC01A08103
:10053000B1814C91848121E030E0B90102C0660FA5
:10054000771F8A95E2F7CB01809584238C93A08155
:10055000B1818C91958101C0220F9A95EAF7822B87
:100560008C930895CF93DF93D82FC92F8FE097E214
:100570000197F1F700C000008D2F9C2F0E947A0296
:100580008FE097E20197F1F700C000008D2F9C2FBC
:10059000DF91CF910C949602FC01A081B1814C9126
:1005A000248181E090E0BC0102C0660F771F2A958C
:1005B000E2F79B01209524232C93A081B1812C91FB
:1005C000358101C0880F3A95EAF7809582238C9394
:1005D00008950F931F93CF93DF9300D000D000D0E6
:1005E000CDB7DEB7942F852F2E833D8310928500E3
:1005F0001092840020E030E048EC52E499838A8332
:100600006B837C8369817A818B819C810E94190430
:1006100020E030E04FE753E469837A838B839C8347
:1006200069817A818B819C810E94480569837A83E4
:100630008B839C8369817A818B819C810E948B044E
:10064000462F572F509389004093880020E030E0D8
:1006500048EC52E409831A838E818B838D818C83CD
:1006600069817A818B819C810E94190420E030E0AD
:100670004FE753E469837A838B839C8369817A8112
:100680008B819C810E94480569837A838B839C833C
:1006900069817A818B819C810E948B04462F572F20
:1006A00050938B0040938A00E0E8F0E08081816FF6
:1006B0008083E1E8F0E08081826080831092820094
:1006C00026960FB6F894DEBF0FBECDBFDF91CF9157
:1006D0001F910F91089508958AB18C638AB9089586
:1006E0005B9808955A980895CF93DF93D82FC92F18
:1006F0000E9470038D2F9C2FDF91CF910C94720379
:100700005B9A08955A9A0895CF93DF93D82FC92FF3
:100710000E9480038D2F9C2FDF91CF910C94820338
:100720000F931F93CF93DF9300D000D000D0CDB7AD
:10073000DEB78E839D83662309F444C0643B09F4CD
:1007400046C0262F30E050E040E029833A834B83B7
:100750005C83CA01B9010E94BC049B01AC0160E04A
:1007600070EA8CE895E40E94190469837A838B838C
:100770009C8369817A818B819C810E948B0484E6B1
:10078000861B282F30E050E040E029833A834B83DA
:100790005C83CA01B9010E94BA0400E010E098012C
:1007A000462F572FBC018E819D810E94E90226961B
:1007B0000FB6F894DEBF0FBECDBFDF91CF911F9172
:1007C0000F91089560E070E088EC92E4CECF60E095
:1007D00070E080E090E0C9CF84E6861B0895CDB735
:1007E000DEB7AC970FB6F894DEBF0FBECDBF87B1B2
:1007F0008F7A87B9CE0101960E944A00CE010196F8
:100800000E94BA01CE018C960E943A02CE018B96CC
:100810000E946B0390E080E0AC960FB6F894DEBFC8
:100820000FBECDBF0895EE0FFF1F0590F491E02D90
:1008300009940E942D040C940E050E94070558F09F
:100840000E94000540F029F45F3F29F00C94F70462
:1008500051110C9442050C94FD040E941F0568F38D
:100860009923B1F3552391F3951B550BBB27AA2769
:1008700062177307840738F09F5F5F4F220F331FA3
:10088000441FAA1FA9F335D00E2E3AF0E0E832D06B
:1008900091505040E695001CCAF72BD0FE2F29D06E
:1008A000660F771F881FBB1F261737074807AB0740
:1008B000B0E809F0BB0B802DBF01FF2793585F4FB5
:1008C0003AF09E3F510578F00C94F7040C944205E1
:1008D0005F3FE4F3983ED4F3869577956795B79597
:1008E000F7959F5FC9F7880F911D9695879597F9A2
:1008F0000895E1E0660F771F881FBB1F621773071B
:100900008407BA0720F0621B730B840BBA0BEE1F2F
:1009100088F7E09508950E94270588F09F5798F082
:10092000B92F9927B751B0F0E1F0660F771F881FF4
:10093000991F1AF0BA95C9F714C0B13091F00E940E
:100940004105B1E008950C944105672F782F882761
:10095000B85F39F0B93FCCF3869577956795B39535
:10096000D9F73EF490958095709561957F4F8F4FA4
:100970009F4F0895E89409C097FB3EF490958095A9
:10098000709561957F4F8F4F9F4F9923A9F0F92F55
:1009900096E9BB279395F695879577956795B795D3
:1009A000F111F8CFFAF4BB0F11F460FF1BC06F5FB9
:1009B0007F4F8F4F9F4F16C0882311F096E911C0CB
:1009C000772321F09EE8872F762F05C0662371F0EC
:1009D00096E8862F70E060E02AF09A95660F771F00
:1009E000881FDAF7880F9695879597F9089597F9F4
:1009F0009F6780E870E060E008959FEF80EC0895C5
:100A000000240A94161617061806090608950024ED
:100A10000A9412161306140605060895092E039467
:100A2000000C11F4882352F0BB0F40F4BF2B11F4DB
:100A300060FF04C06F5F7F4F8F4F9F4F089557FD3A
:100A40009058440F551F59F05F3F71F04795880F3C
:100A500097FB991F61F09F3F79F0879508951216D3
:100A600013061406551FF2CF4695F1DF08C016167F
:100A700017061806991FF1CF869571056105089430
:100A80000895E894BB2766277727CB0197F9089547
:100A90000E945B050C940E050E94000538F00E9430
:100AA000070520F0952311F00C94F7040C94FD0435
:100AB00011240C9442050E941F0570F3959FC1F309
:100AC000950F50E0551F629FF001729FBB27F00DFC
:100AD000B11D639FAA27F00DB11DAA1F649F662751
:100AE000B00DA11D661F829F2227B00DA11D621FA0
:100AF000739FB00DA11D621F839FA00D611D221F5A
:100B0000749F3327A00D611D231F849F600D211D3D
:100B1000822F762F6A2F11249F5750409AF0F1F0C0
:100B200088234AF0EE0FFF1FBB1F661F771F881F29
:100B300091505040A9F79E3F510580F00C94F70466
:100B40000C9442055F3FE4F3983ED4F38695779585
:100B50006795B795F795E7959F5FC1F7FE2B880FCF
:100B6000911D9695879597F90895F894FFCFB00059
:0E0B7000BF00C800CE00D700E100E300E8009F
:00000001FF
