:100000000C943E000C945B000C945B000C945D001F
:100010000C945B000C945B000C945B000C945B00F4
:100020000C945B000C945B000C945B000C945B00E4
:100030000C945B000C945B000C945B000C945B00D4
:100040000C945B000C945B000C945B000C945B00C4
:100050000C945B000C945B000C945B000C945B00B4
:100060000C945B000C945B000C945B000C945B00A4
:100070000C945B000C945B000C945B0011241FBE7D
:10008000CFEFD8E0DEBFCDBF11E0A0E0B1E0EEE5FC
:10009000FDE102C005900D92A630B107D9F721E02D
:1000A000A6E0B1E001C01D92A730B207E1F70E94BF
:1000B0006B090C94800E0C9400008F938FB78F9374
:1000C0009F938FE59AEE0197F1F700C000001A9B0D
:1000D00003C081E080930601E29A9F918F918FBFC8
:1000E0008F9118950F93CF93DF93EC01FC0132961B
:1000F00080E2DF011D928A95E9F701E020E041E20C
:1001000050E062E270E0CE0186960E94DF04CE01EC
:100110008C960E94EB05CE018D960E94B3048AB1A5
:10012000806C8AB95E98E1EBF0E080818460808326
:10013000E0EBF0E080818264808318821AA21BA227
:100140001DA20B98DF91CF910F9108950F931F93EC
:10015000CF93DF93EC018C010A5D1F4FC8010E9411
:10016000310562E083E290E00E9497048823A1F0C9
:100170001982C8010E94F9042FEF83ED90E321500A
:1001800080409040E1F700C00000C801DF91CF91AE
:100190001F910F910C944B0566E086E290E00E945F
:1001A00097048111DBCF82E08983C8010E94150585
:1001B000E3CFDC011196EC911197E83098F4F0E070
:1001C000EE57F14F92968C9192970C94A00928E0EB
:1001D000629FF00111248A0F9B2F911DE80FF91FD8
:1001E00081E082838C918F5F8C930895FD01E80FED
:1001F000F11D39E0639FE00DF11D1124F1CFFD01E8
:10020000E80FF11DE60FF11DEBCF29EF2603F001FA
:100210001124EA0FFB1FE80FF11DE2CFE82FF0E0F9
:1002200038E0639FE019F1091124EA0FFB1FD8CFD2
:1002300027EFECCF282F261B330BF901F6CFFD015A
:10024000E80FF11D37E0D6CFDF92EF92FF920F93C8
:100250001F93CF93DF93CDB7DEB729970FB6F894EE
:10026000DEBF0FBECDBF7E0189E0E80EF11CC701E5
:100270000E9478068E01085F1F4FC8010E94B304D8
:10028000D02E1A9BFECF01E020E041E250E062E276
:1002900070E0CE0101960E94DF04CE0101960E941B
:1002A000F90463E08D2D912F0E94BC0496958795EB
:1002B000969587958F8321E0AE01495F5F4F70E08F
:1002C00060E0C7010E94F8078D2D912F0E94B904AC
:1002D000C7010E946E0629960FB6F894DEBF0FBEC6
:1002E000CDBFDF91CF911F910F91FF90EF90DF90E5
:1002F0000895CF92DF92FF920F931F93CF93DF93D6
:10030000CDB7DEB762970FB6F894DEBF0FBECDBF94
:100310008E010F5E1F4FC8010E947806F02E36999D
:10032000FECF01E020E041E250E062E270E0CE0169
:100330000B960E94DF04CE010B960E944B0521E034
:10034000AE014E5E5F4F70E060E08F2D912F0E94F6
:10035000EA068A891F928F9381E091E09F938F93A1
:10036000CE0101966C019F938F930E94AF0B8FE19A
:100370009EE40197F1F700C00000C6010E94320818
:100380008FE19EE40197F1F700C000008F2D912FBF
:100390000E946E060F900F900F900F900F900F908D
:1003A00062960FB6F894DEBF0FBECDBFDF91CF913E
:1003B0001F910F91FF90DF90CF9008950F931F939F
:1003C000CF93DF938C01EC01AD960A5D1F4F63E084
:1003D000CE010E94BC0496958795969587959C01C1
:1003E000255231092E30310580F0275131092E3048
:1003F000310558F0843B910570F4845691090D97AE
:1004000050F0C8010E941505E2CF82E0DF91CF9144
:100410001F910F91089581E0F9CF0F931F93CF9310
:10042000DF93EC018C01035D1F4F63E0C8010E9464
:10043000BC048439910558F08BA18F5F8BA3823067
:10044000A0F381E0DF91CF911F910F91089580E09B
:10045000F9CFCF92DF92FF920F931F93CF93DF9349
:10046000EC016C018CE2C80ED11CC6010E94FF0594
:10047000C6010E94F10500E010E02CE032E4B90171
:10048000A801C6010E94680506E910E01BA2CE0182
:100490000E940D02F82E882391F000E010E028EC75
:1004A00032E4B901A801C6010E9468058F2DDF91D1
:1004B000CF911F910F91FF90DF90CF9008958FE91A
:1004C0009FE00197F1F700C0000001501109F1F61B
:1004D00089818730A9F08F5F898308E710E01BA22C
:1004E000CE010E940D02F82E8111D7CF8FE99FE037
:1004F0000197F1F700C000000150110981F7CDCF3D
:1005000080E0EACFAF92BF92CF92DF92EF92FF925C
:100510000F931F93CF93DF937C015C012DE2A20E1A
:10052000B11C63E0C5010E94BC04803D9240C8F547
:100530006701FCE2CF0ED11CC6010E94F30500E06A
:1005400010E02CE032E440E050E060EF71E4C601DE
:100550000E9468052FEF84E39CE02150804090408A
:10056000E1F700C0000063E0C5010E94BC04EC019B
:10057000D695C795D695C795F70184A18C171D060A
:1005800009F0D0F4FFEF24E38CE0F15020408040EC
:10059000E1F700C00000F70184A18C171D0608F4E4
:1005A000C4A3DF91CF911F910F91FF90EF90DF9047
:1005B000CF90BF90AF900895C6010E94FF05C6017D
:1005C0000E94F10500E010E02CE832E4B901A80136
:1005D000C6010E946805EFECF7E03197F1F700C023
:1005E000000063E0C5010E94BC04EC01D695C795EC
:1005F000D695C79500E010E028EC32E4B901A801D7
:10060000C6010E946805B8CFCF92DF92EF92FF92A9
:100610000F931F93CF93DF93EC01898111E0811138
:1006200001C017E080E00CC0CE010E9429022FEF2C
:1006300039E698E1215030409040E1F700C00000D9
:100640009981911709F45BC0882371F3CE010E9450
:10065000DE01F82E6E012CE2C20ED11CFF2009F43F
:1006600062C000E010E028EC32E4B901A801C60144
:100670000E94680563E0CE018D960E94BC049695A9
:100680008795969587958CA36F2DCE010E94D900F2
:1006900018E07E0196E2E90EF11C8CA1843B40F447
:1006A000CE010E948202C7010E9431051150A9F7B4
:1006B00000E010E028EC32E4B901A801C6010E9474
:1006C000680513E0AE9661E5CE010E945E082FEF4B
:1006D00032E587E0215030408040E1F700C0000063
:1006E000CE010E9465099FEF22E537E0915020403E
:1006F0003040E1F700C00000115029F709C0811116
:10070000A5CFCE010E94290281110BC081E08DA3EB
:10071000DF91CF911F910F91FF90EF90DF90CF90DD
:100720000895198393CFC6010E940106C6010E9455
:10073000EF0500E010E020E732E4B901A801C601AE
:100740000E9468058FEC97E00197F1F700C0000068
:10075000CE010E94DE01F82E81CF0F931F93CF931D
:10076000DF93EC010E94A600CE010E940403EA9AE6
:10077000CE018696182F092F8DA1882329F0DF91AD
:10078000CF911F910F910895812F902F0E943105D5
:1007900080910601882381F3EA98CE010E94040328
:1007A00010920601EA9AE8CF0F931F93CF93DF933D
:1007B0000F92CDB7DEB78C01CE0101960E9478066C
:1007C000A8014E5F5F4F20E270E060E0CE0101962D
:1007D0000E94F807CE0101960E946E060F90DF91ED
:1007E000CF911F910F910895EC018C01025D1F4F75
:1007F0006DE2C8010E945E082FEF83ED90E3215067
:1008000080409040E1F700C00000C8010E946509E7
:10081000A696CE010E9415052FE78AE196E02150A9
:1008200080409040E1F700C00000CE010E944B05DF
:100830002FE78AE196E0215080409040E1F700C028
:100840000000CE010E9415052FE78AE196E02150B5
:1008500080409040E1F700C00000CE010E944B05AF
:100860002FE78AE196E0215080409040E1F700C0F8
:100870000000CFCFF89487B18B7B87B9E9E6F0E031
:10088000808180638083789408959DB321E030E077
:1008900001C0220F8A95EAF7922B9DBB0895FC01B7
:1008A000842FF894908121E030E001C0220F6A95F6
:1008B000EAF72095292320830E944504E9E6F0E029
:1008C00080818160808380818D7F8083789408958A
:1008D000FC01842FF894908121E030E001C0220FC8
:1008E0006A95EAF72095292320830E944504E9E6CA
:1008F000F0E080818260808380818E7F8083789425
:100900000895FC01842FF894908121E030E001C02B
:10091000220F6A95EAF72095292320830E94450437
:10092000E9E6F0E080818360808378940895FC019B
:10093000808190E0062E02C0959587950A94E2F793
:1009400080FF0FC08FE097E20197F1F700C0000031
:10095000808190E002C0959587956A95E2F7817055
:10096000089580E0089510927C0086E880937A00D4
:10097000089510927A00089580917C00807E809383
:100980007C0080917C006770682B60937C00809174
:100990007A00806480937A0080917A0084FFFCCF93
:1009A00080917A00806180937A0020917800809114
:1009B000790090E0982F8827820F911D08950F935A
:1009C000FC01DA01718360835383428324830583AE
:1009D0003C9141E050E0CA0101C0880F2A95EAF736
:1009E00001C0440F0A95EAF7842B832B8C930F9157
:1009F0000895FC01A081B1814C91858121E030E016
:100A0000B90102C0660F771F8A95E2F7CB01809586
:100A100084238C93A081B1818C91948101C0220F99
:100A20009A95EAF7822B8C930895FC01A081B181FD
:100A30004C91848121E030E0B90102C0660F771F3C
:100A40008A95E2F7CB01809584238C93A081B181B4
:100A50008C91958101C0220F9A95EAF7822B8C9395
:100A60000895CF93DF93D82FC92F8FE097E2019796
:100A7000F1F700C000008D2F9C2F0E94F9048FE039
:100A800097E20197F1F700C000008D2F9C2FDF91B6
:100A9000CF910C941505FC01A081B1814C9124816A
:100AA00081E090E0BC0102C0660F771F2A95E2F753
:100AB0009B01209524232C93A081B1812C91358119
:100AC00001C0880F3A95EAF7809582238C930895A8
:100AD0000F931F93CF93DF9300D000D000D0CDB7FA
:100AE000DEB7942F852F2E833D83109285001092C0
:100AF000840020E030E048EC52E499838A836B83E1
:100B00007C8369817A818B819C810E94130A20E019
:100B100030E04FE753E469837A838B839C83698158
:100B20007A818B819C810E94420B69837A838B83BB
:100B30009C8369817A818B819C810E94850A462FE2
:100B4000572F509389004093880020E030E048EC14
:100B500052E409831A838E818B838D818C83698112
:100B60007A818B819C810E94130A20E030E04FE75C
:100B700053E469837A838B839C8369817A818B8137
:100B80009C810E94420B69837A838B839C83698159
:100B90007A818B819C810E94850A462F572F509322
:100BA0008B0040938A00E0E8F0E08081816F8083D1
:100BB000E1E8F0E0808182608083109282002696D6
:100BC0000FB6F894DEBF0FBECDBFDF91CF911F915E
:100BD0000F91089508958AB18C638AB908955B983E
:100BE00008955A980895CF93DF93D82FC92F0E9464
:100BF000EF058D2F9C2FDF91CF910C94F1055B9A1F
:100C000008955A9A0895CF93DF93D82FC92F0E9441
:100C1000FF058D2F9C2FDF91CF910C9401060F9330
:100C20001F93CF93DF9300D000D000D0CDB7DEB7B5
:100C30008E839D83662309F444C0643B09F446C057
:100C4000262F30E050E040E029833A834B835C83D9
:100C5000CA01B9010E94B60A9B01AC0160E070EACA
:100C60008CE895E40E94130A69837A838B839C83C2
:100C700069817A818B819C810E94850A84E6861B2A
:100C8000282F30E050E040E029833A834B835C8397
:100C9000CA01B9010E94B40A00E010E09801462F91
:100CA000572FBC018E819D810E94680526960FB644
:100CB000F894DEBF0FBECDBFDF91CF911F910F9192
:100CC000089560E070E088EC92E4CECF60E070E0E0
:100CD00080E090E0C9CF84E6861B0895089580EAFD
:100CE000809300011092B90080E28093B8000895CB
:100CF000FC0180E88083CF010C946F06982F9370DD
:100D0000891305C0880F806A8093000108958FEFD2
:100D10000895FA0194EA24E89093BC008091BC0005
:100D200087FFFCCF809100018093BB002093BC0023
:100D30008091BC0087FFFCCF8091B900883161F7BA
:100D400084EA8093BC008091BC0087FFFCCF809137
:100D500000018093BB0084E88093BC008091BC00BC
:100D600087FFFCCF7093BB0084E88093BC00809128
:100D7000BC0087FFFCCF6093BB0084E88093BC007D
:100D80008091BC0087FFFCCF8091BC0087FFFCCF27
:100D900084EA8093BC008091BC0087FFFCCF8091E7
:100DA00000018F5F8093BB0084E88093BC0080913A
:100DB000BC0087FFFCCF84E88093BC008091BC001E
:100DC00087FFFCCF8091BB00808384E98093BC00C7
:100DD00080E0089594EA34E89093BC008091BC00D0
:100DE00087FFFCCF809100018093BB003093BC0053
:100DF0008091BC0087FFFCCF8091B900883161F7FA
:100E000084EA8093BC008091BC0087FFFCCF809176
:100E100000018093BB0084E88093BC008091BC00FB
:100E200087FFFCCF7093BB0084E88093BC00809167
:100E3000BC0087FFFCCF6093BB0084E88093BC00BC
:100E40008091BC0087FFFCCF84EA8093BC00809136
:100E5000BC0087FFFCCF809100018F5F8093BB00B7
:100E600084E88093BC008091BC0087FFFCCF84ECB9
:100E7000211105C084E98093BC0080E008952130F1
:100E800009F484E88093BC009091BC0097FFFCCFEC
:100E9000FA019091BB0091932150AF01E9CF94EA00
:100EA00024E89093BC008091BC0087FFFCCF809128
:100EB00000018093BB002093BC008091BC0087FFA1
:100EC000FCCF8091B900883161F784EA8093BC003F
:100ED0008091BC0087FFFCCF809100018093BB0014
:100EE00084E88093BC008091BC0087FFFCCF7093A6
:100EF000BB0084E88093BC008091BC0087FFFCCFDE
:100F00006093BB0084E88093BC008091BC0087FFA5
:100F1000FCCF4093BB0084E88093BC008091BC0070
:100F200087FFFCCF84E98093BC0080E00895FB013B
:100F3000260F372F311DDC018C918150990B862BA8
:100F40009F2B2817390718F09C012F5F3F4F822FE6
:100F50008E1B24EA34E82093BC009091BC0097FFDC
:100F6000FCCF909100019093BB003093BC00909116
:100F7000BC0097FFFCCF9091B900983161F794EADB
:100F80009093BC009091BC0097FFFCCF9091000122
:100F90009093BB0094E89093BC009091BC0097FFA5
:100FA000FCCFF093BB0094E89093BC009091BC0000
:100FB00097FFFCCFE093BB0094E89093BC00909126
:100FC000BC0097FFFCCF982F24E8911104C094E94E
:100FD0009093BC000895FA0131913093BB002093A7
:100FE000BC003091BC0037FFFCCF9150AF01EDCF7A
:100FF000DF92EF92FF920F931F93CF93DF93D82E40
:10100000D92F7B018A01C22F2C2FA801B7018D2D6A
:101010009D2F0E949707282F30E0E20EF31EC81B79
:10102000020F131FC111F0CF80E0DF91CF911F910C
:101030000F91FF90EF90DF9008958091C00085FFA1
:10104000FCCF6093C60008951092C5008FEC80938A
:10105000C4001092C00088E18093C10086E08093B4
:10106000C2000895CF93DF93DC011092C5008FEC8E
:101070008093C4001092C00088E18093C10086E094
:101080008093C200FD0101900020E9F73197EA1B2F
:10109000FB0B20E0822F90E08E179F071CF0DF9162
:1010A000CF9108953091C00035FFFCCF8A0F9B1F70
:1010B000EC0188818093C6002F5FECCFCF93DF9344
:1010C00000D000D0CDB7DEB7DC016D52653278F4C8
:1010D000E62FF0E0E657F14F0C94A00940E050E015
:1010E0006CED72E44D935D936D937C931397109226
:1010F000B2008091B00080648093B00020E030E0C6
:1011000040E054E46D917D918D919C910E94420B41
:101110009B01AC0160E074E284EF9AE40E94130A40
:1011200020E030E040E85FE369837A838B839C832F
:1011300069817A818B819C810E94A60969837A8367
:101140008B839C8369817A818B819C810E94850A33
:101150006093B3000F900F900F900F90DF91CF919D
:1011600008954BE754E169EE72E4BCCF44EA50EFD6
:1011700066EF72E4B7CF4CE55FEC62E073E4B2CFA8
:101180004AE057E96AE073E4ADCF4BE754ED62E122
:1011900073E4A8CF4CE55FE86BE173E4A3CF4CE5C3
:1011A0005FEC64E273E49ECF49E25CE96EE273E4D3
:1011B00099CF40E050E069E373E494CF40E050E021
:1011C00064E473E48FCF46E656EA6FE473E48ACFB3
:1011D00040E050E06CE573E485CF4BE754E169E60D
:1011E00073E480CF44EA50EF66E773E47BCF44EAD0
:1011F00050ED62E873E476CF4AE057E96AE873E4B9
:1012000071CF4BE754ED62E973E46CCF44EA50E9E7
:101210006BE973E467CF44EA50ED64EA73E462CFAC
:1012200041E75DE96EEA73E45DCF48EB5EEF68EBA2
:1012300073E458CF40E050E064EC73E453CF46E6EB
:1012400056EA6FEC73E44ECF40E050E06CED73E48F
:1012500049CF4BE754E169EE73E444CF44EA50EFE1
:1012600066EF73E43FCF40E050ED62E074E43ACFC4
:101270004EEA57E96AE074E435CF4FE155ED62E19B
:1012800074E430CF40E050E96BE174E42BCF44EAE2
:1012900050ED64E274E426CF41E75DE96EE274E468
:1012A00021CF4CE55FEF68E374E41CCF4CE55FEFC2
:1012B00063E474E417CF4AE057EA6FE474E412CFB2
:1012C00040E050E06CE574E40DCFE0EBF0E08081AD
:1012D0008F7B80830895CDB7DEB7E8970FB6F8947B
:1012E000DEBF0FBECDBF0E943A04CE0101960E9420
:1012F000720001E020E041E250E062E270E0CE01E5
:10130000C3960E94DF04CE01C3960E941505CE014C
:1013100001960E942401CE0101960E947901CE011E
:101320008E960E94B904CE018D960E94EA0590E047
:1013300080E0E8960FB6F894DEBF0FBECDBF0895EB
:10134000EE0FFF1F0590F491E02D09945058BB2734
:10135000AA270E94BE090C94080B0E94FA0A38F0D2
:101360000E94010B20F039F49F3F19F426F40C94ED
:10137000F70A0EF4E095E7FB0C94F10AE92F0E94BE
:10138000190B58F3BA17620773078407950720F003
:1013900079F4A6F50C943B0B0EF4E0950B2EBA2FC6
:1013A000A02D0B01B90190010C01CA01A00111246B
:1013B000FF27591B99F0593F50F4503E68F11A1617
:1013C000F040A22F232F342F4427585FF3CF4695A8
:1013D00037952795A795F0405395C9F77EF41F16CA
:1013E000BA0B620B730B840BBAF09150A1F0FF0F94
:1013F000BB1F661F771F881FC2F70EC0BA0F621F80
:10140000731F841F48F4879577956795B795F7956F
:101410009E3F08F0B0CF9395880F08F09927EE0F04
:101420009795879508950E94270A0C94080B0E94AF
:10143000010B58F00E94FA0A40F029F45F3F29F0AE
:101440000C94F10A51110C943C0B0C94F70A0E9475
:10145000190B68F39923B1F3552391F3951B550BA1
:10146000BB27AA2762177307840738F09F5F5F4F77
:10147000220F331F441FAA1FA9F335D00E2E3AF0B6
:10148000E0E832D091505040E695001CCAF72BD0CE
:10149000FE2F29D0660F771F881FBB1F261737071F
:1014A0004807AB07B0E809F0BB0B802DBF01FF2751
:1014B00093585F4F3AF09E3F510578F00C94F10A33
:1014C0000C943C0B5F3FE4F3983ED4F386957795FC
:1014D0006795B795F7959F5FC9F7880F911D96950A
:1014E000879597F90895E1E0660F771F881FBB1F66
:1014F000621773078407BA0720F0621B730B840B13
:10150000BA0BEE1F88F7E09508950E94210B88F032
:101510009F5798F0B92F9927B751B0F0E1F0660FB7
:10152000771F881F991F1AF0BA95C9F714C0B130F8
:1015300091F00E943B0BB1E008950C943B0B672F98
:10154000782F8827B85F39F0B93FCCF38695779527
:101550006795B395D9F73EF4909580957095619510
:101560007F4F8F4F9F4F0895E89409C097FB3EF43B
:1015700090958095709561957F4F8F4F9F4F9923E0
:10158000A9F0F92F96E9BB279395F695879577955E
:101590006795B795F111F8CFFAF4BB0F11F460FF1E
:1015A0001BC06F5F7F4F8F4F9F4F16C0882311F076
:1015B00096E911C0772321F09EE8872F762F05C08A
:1015C000662371F096E8862F70E060E02AF09A9525
:1015D000660F771F881FDAF7880F9695879597F91A
:1015E000089597F99F6780E870E060E008959FEFA5
:1015F00080EC089500240A941616170618060906AA
:10160000089500240A941216130614060506089578
:10161000092E0394000C11F4882352F0BB0F40F400
:10162000BF2B11F460FF04C06F5F7F4F8F4F9F4F40
:10163000089557FD9058440F551F59F05F3F71F0C2
:101640004795880F97FB991F61F09F3F79F0879529
:101650000895121613061406551FF2CF4695F1DFB2
:1016600008C0161617061806991FF1CF8695710542
:10167000610508940895E894BB2766277727CB0176
:1016800097F908950E94550B0C94080B0E94FA0AD2
:1016900038F00E94010B20F0952311F00C94F10A10
:1016A0000C94F70A11240C943C0B0E94190B70F354
:1016B000959FC1F3950F50E0551F629FF001729FF7
:1016C000BB27F00DB11D639FAA27F00DB11DAA1F06
:1016D000649F6627B00DA11D661F829F2227B00D53
:1016E000A11D621F739FB00DA11D621F839FA00DDE
:1016F000611D221F749F3327A00D611D231F849F2E
:10170000600D211D822F762F6A2F11249F57504084
:101710009AF0F1F088234AF0EE0FFF1FBB1F661FFF
:10172000771F881F91505040A9F79E3F510580F0C8
:101730000C94F10A0C943C0B5F3FE4F3983ED4F315
:10174000869577956795B795F795E7959F5FC1F76C
:10175000FE2B880F911D9695879597F90895AEE019
:10176000B0E0E5EBFBE00C94570E0D891E8986E096
:101770008C831A8309838FEF9FE79E838D83AE014D
:10178000475E5F4F6F89788DCE0101960E94D20B24
:101790002F813885020F131FF80110822E96E4E086
:1017A0000C94730EAFE0B0E0E8EDFBE00C94490E52
:1017B0007C013B018A01DC0117961C921E92169750
:1017C00013968C9181FFBEC19AE0292EFE013196BD
:1017D0004F01D70113969C91F30193FD859193FFDF
:1017E00081913F01882309F444C1853239F493FD86
:1017F000859193FF81913F01853229F4B70190E0F3
:101800000E94BB0DE6CFB12C412C512CBFE1B51588
:1018100038F08B3209F188F4803201F1833221F102
:1018200057FC3AC020ED280F2A3040F556FE1FC065
:10183000B29C200D1124B22E06C08D3291F080335F
:1018400079F7689450F8F30193FD859193FF8191A6
:101850003F018111DBCF20C0689451F8689452F8A1
:10186000F2CF689453F8EFCF689454F8ECCF429CD1
:10187000200D1124422E689455F8E5CF8E3229F4BC
:1018800056FCF7C0689456F8DECF8C3619F468948D
:1018900057F8D9CF8836B9F2982F9F7D9554933059
:1018A000C0F0833681F18337A1F1833509F05BC045
:1018B000D801CD90DD908D016B2D70E056FC02C0FB
:1018C0006FEF7FEFC6010E94A50D5C01689457F889
:1018D0000AC00C5F1F4FEFE3E983AA24A394B12C45
:1018E0006401E89457F853FE29C0342CA114B104C4
:1018F00051F5332009F46DCFB70180E290E00E94EA
:10190000BB0D3A94F6CFD8018C9189830E5F1F4F9F
:10191000E4CFF801C190D1908F016B2D70E056FC9F
:1019200002C06FEF7FEFC6010E94B00D5C01D9CFFE
:10193000B70180E290E00E94BB0D4A944A141B0458
:1019400009F0B0F7D2CFF60157FC859157FE81918F
:101950006F01B70190E00E94BB0D31103A94B1E0E5
:10196000AB1AB108C3CF843619F0893609F071C0BB
:10197000F80157FE67C061917191819191918F013A
:10198000E52DEF76DE2E97FF09C090958095709536
:1019900061957F4F8F4F9F4F6894D7F82AE030E0D2
:1019A000A4010E94EB0DC82EC818AC2C5D2CD6FEED
:1019B0000CC0E89450F8CB1440F4D4FE05C0D2FC1F
:1019C00003C05D2D5E7E552EAB2C54FE93C0FE01F0
:1019D000EC0DF11D8081803309F085C0652D697E95
:1019E000562E752D7870372E53FC93C050FE8DC047
:1019F000BC2CA41410F4B40CBA1854FE90C0B70157
:101A000080E390E00E94BB0D52FE07C088E751FCC6
:101A100088E590E0B7010E94BB0DCB1408F48BC0A1
:101A2000CA94D12C8FEFC81AD80AC80CD91CD60179
:101A30008E916D01B70190E00E94BB0D8C149D0446
:101A4000B1F757CF61917191072E000C880B990B5C
:101A500096CFD52CE894D4F82AE0853729F1F52DD6
:101A6000F97FDF2E8037A1F058F48835A1F08F364A
:101A7000D1F0F701868197812F96E2E10C94650EF3
:101A80008837B9F7D4FE02C06894D2F820E10CC0C0
:101A90006894D4F8F7CF54FE03C02F2F2660D22EBF
:101AA00020E132E002C028E030E0F801D7FE15C0A6
:101AB00041915191619171914C875D876E877F87CC
:101AC0008F01A4016C857D858E859F850E94EB0D1D
:101AD000C82EC818E894D7F868CF81919191AC01CD
:101AE00070E060E0E9CF52FC02C0A3947ACFA394E7
:101AF000A39477CF852D867809F473CFF6CFB701FD
:101B000080E290E00E94BB0DA394A414C0F3312C9A
:101B100074CF342C3A18A41408F46FCFF8CF852D65
:101B2000867809F47ACF8BE251FE80E257FC8DE291
:101B3000B70190E070CFB70180E390E00E94BB0D49
:101B4000BA946BCF8FEF9FEF97CFFC010590615058
:101B500070400110D8F7809590958E0F9F1F0895C3
:101B6000FC016150704001900110D8F7809590956C
:101B70008E0F9F1F08950F931F93CF93DF93182FFE
:101B8000092FEB018B8181FD09C01FEF0FEF812F22
:101B9000902FDF91CF911F910F91089582FF14C074
:101BA0002E813F818C819D81281739073CF4E88183
:101BB000F981CF0101969983888310838E819F815B
:101BC00001969F838E83E3CFE885F985812F099560
:101BD000892BA1F3DACFFA01AA27283051F120315D
:101BE00081F1E8946F936E7F6E5F7F4F8F4F9F4FB1
:101BF000AF4FB1E03ED0B4E03CD0670F781F891FF3
:101C00009A1FA11D680F791F8A1F911DA11D6A0FC0
:101C1000711D811D911DA11D20D009F468943F9173
:101C20002AE0269F11243019305D3193DEF6CF0172
:101C30000895462F4770405D4193B3E00FD0C9F738
:101C4000F6CF462F4F70405D4A3318F0495D31FDA5
:101C50004052419302D0A9F7EACFB4E0A6959795F8
:101C6000879577956795BA95C9F7009761057105CE
:101C700008959B01AC010A2E069457954795379518
:101C80002795BA95C9F7620F731F841F951FA01D72
:101C900008952F923F924F925F926F927F928F9210
:101CA0009F92AF92BF92CF92DF92EF92FF920F93EB
:101CB0001F93CF93DF93CDB7DEB7CA1BDB0B0FB6F5
:101CC000F894DEBF0FBECDBF09942A8839884888B2
:101CD0005F846E847D848C849B84AA84B984C88448
:101CE000DF80EE80FD800C811B81AA81B981CE0F3F
:101CF000D11D0FB6F894DEBF0FBECDBFED01089524
:101D0000F894FFCFE700F600FF0005010E0118016F
:101D10001A011F016E08B108B608BB08C008C50843
:101D2000CA08CF08D408D908DE08E308E808ED0897
:101D3000F208F708FC08010906090B091009150942
:101D40001A091F09240929092E09330938093D09EF
:0E1D5000420947094C09510956095B0960090F
:061D5E00A0257520000025
:00000001FF
