:100000000C943E000C9453000C9453000C94530039
:100010000C9453000C9453000C9453000C94530014
:100020000C9453000C9453000C9453000C94530004
:100030000C9453000C9453000C9453000C945300F4
:100040000C9453000C9453000C9453000C945300E4
:100050000C9453000C9453000C9453000C945300D4
:100060000C9453000C9453000C9453000C945300C4
:100070000C9453000C9453000C94530011241FBE95
:10008000CFEFD8E0DEBFCDBF11E0A0E0B1E0E6ECFD
:10009000FBE002C005900D92A430B107D9F70E9491
:1000A000E6020C94D9050C9400000F93CF93DF93D4
:1000B000EC01FC01329680E2DF011D928A95E9F79E
:1000C00001E020E041E250E062E270E0CE01839680
:1000D0000E94310218821AA2DF91CF910F910895E8
:1000E0000F931F93CF93DF93EC018C010D5D1F4F96
:1000F000C8010E94830264E086E290E00E94E90168
:100100008823A1F01982C8010E944B022FEF83EDD2
:1001100090E3215080409040E1F700C00000C8010A
:10012000DF91CF911F910F910C949D0266E086E2C2
:1001300090E00E94E9018111DBCF82E08983C80150
:100140000E946702E3CFDC011196EC911197E83031
:1001500098F4F0E0E552FA4F92968C9192970C94B5
:10016000020328E0629FF00111248A0F9B2F911D4A
:10017000E80FF91F81E082838C918F5F8C93089543
:10018000FD01E80FF11D39E0639FE00DF11D112421
:10019000F1CFFD01E80FF11DE60FF11DEBCF29EFC7
:1001A0002603F0011124EA0FFB1FE80FF11DE2CF37
:1001B000E82FF0E038E0639FE019F1091124EA0F1D
:1001C000FB1FD8CF27EFECCF282F261B330BF901CD
:1001D000F6CFFD01E80FF11D37E0D6CFFF920F9368
:1001E0001F93CF93DF930F92CDB7DEB78E010F5FD2
:1001F0001F4FC8010E9405020B98F02E012F8FE0BF
:1002000097E20197F1F700C0000063E08F2D902F77
:100210000E940E029695879596958795EFE1FEE4EC
:100220003197F1F700C000009C01205131092230C4
:10023000310568F0285031092330310540F08B3505
:10024000910518F48F970397D0F611E001C012E0E2
:100250008F2D902F0E940B02812F0F90DF91CF9155
:100260001F910F91FF900895AF92BF92CF92DF92AE
:10027000EF92FF920F931F93CF93DF9300D000D0A4
:1002800000D0CDB7DEB78C010E94EE00682FC80108
:100290000E94A300780182E0E80EF11C0E5D1F4F62
:1002A00080E0A82E81E0B82EFE0131966F01F701A3
:1002B00081917F011F928F93BF92AF92DF92CF9275
:1002C0000E9408038FE19EE40197F1F700C000004F
:1002D000C6010E94BA02EFE1FEE43197F1F700C0D7
:1002E00000000F900F900F900F900F900F90E0165E
:1002F000F106E9F626960FB6F894DEBF0FBECDBF25
:10030000DF91CF911F910F91FF90EF90DF90CF90F1
:10031000BF90AF900895CF93DF93D82FC92F0E943D
:1003200070008D2F9C2FDF91CF910C9434019DB3E1
:1003300021E030E001C0220F8A95EAF7922B9DBBA5
:100340000895FC01842FF894908121E030E001C0F1
:10035000220F6A95EAF72095292320830E949701AE
:10036000E9E6F0E080818160808380818D7F8083F9
:1003700078940895FC01842FF894908121E030E076
:1003800001C0220F6A95EAF72095292320830E9455
:100390009701E9E6F0E080818260808380818E7F32
:1003A000808378940895FC01842FF894908121E053
:1003B00030E001C0220F6A95EAF7209529232083B7
:1003C0000E949701E9E6F0E0808183608083789461
:1003D0000895FC01808190E0062E02C095958795D6
:1003E0000A94E2F780FF0FC08FE295E70197F1F7DB
:1003F00000C00000808190E002C0959587956A95C5
:10040000E2F78170089580E0089510927C0086E8FC
:1004100080937A00089510927A00089580917C006C
:10042000807E80937C0080917C006770682B609355
:100430007C0080917A00806480937A0080917A00B9
:1004400084FFFCCF80917A00806180937A002091B4
:1004500078008091790090E0982F8827820F911D75
:1004600008950F93FC01DA01718360835383428303
:10047000248305833C9141E050E0CA0101C0880F0C
:100480002A95EAF701C0440F0A95EAF7842B832BDB
:100490008C930F910895FC01A081B1814C918581CD
:1004A00021E030E0B90102C0660F771F8A95E2F7BC
:1004B000CB01809584238C93A081B1818C91948110
:1004C00001C0220F9A95EAF7822B8C930895FC01C4
:1004D000A081B1814C91848121E030E0B90102C05A
:1004E000660F771F8A95E2F7CB01809584238C9362
:1004F000A081B1818C91958101C0220F9A95EAF774
:10050000822B8C930895CF93DF93D82FC92F8FE040
:1005100097E20197F1F700C000008D2F9C2F0E94F9
:100520004B028FE097E20197F1F700C000008D2F9A
:100530009C2FDF91CF910C946702FC01A081B181C7
:100540004C91248181E090E0BC0102C0660F771FCE
:100550002A95E2F79B01209524232C93A081B18159
:100560002C91358101C0880F3A95EAF78095822356
:100570008C930895CF93DF93DC011092C5008FEC2C
:100580008093C4001092C00088E18093C10086E08F
:100590008093C200FD0101900020E9F73197EA1B2A
:1005A000FB0B20E0822F90E08E179F071CF0DF915D
:1005B000CF9108953091C00035FFFCCF8A0F9B1F6B
:1005C000EC0188818093C6002F5FECCFCDB7DEB7FA
:1005D000A9970FB6F894DEBF0FBECDBF87B18F7A53
:1005E00087B9CE0101960E945500CE0101960E9466
:1005F0008B0190E080E0A9960FB6F894DEBF0FBEA5
:10060000CDBF0895EE0FFF1F0590F491E02D0994E2
:10061000AEE0B0E0EEE0F3E00C94B0050D891E8989
:1006200086E08C831A8309838FEF9FE79E838D83F7
:10063000AE01475E5F4F6F89788DCE0101960E94B3
:100640002B032F813885020F131FF80110822E967D
:10065000E4E00C94CC05AFE0B0E0E1E3F3E00C940F
:10066000A2057C013B018A01DC0117961C921E92B7
:10067000169713968C9181FFBEC19AE0292EFE0138
:1006800031964F01D70113969C91F30193FD85910B
:1006900093FF81913F01882309F444C1853239F4E5
:1006A00093FD859193FF81913F01853229F4B70134
:1006B00090E00E941405E6CFB12C412C512CBFE1F3
:1006C000B51538F08B3209F188F4803201F18332AC
:1006D00021F157FC3AC020ED280F2A3040F556FE94
:1006E0001FC0B29C200D1124B22E06C08D3291F095
:1006F000803379F7689450F8F30193FD859193FF67
:1007000081913F018111DBCF20C0689451F868943A
:1007100052F8F2CF689453F8EFCF689454F8ECCFC6
:10072000429C200D1124422E689455F8E5CF8E325C
:1007300029F456FCF7C0689456F8DECF8C3619F4CD
:10074000689457F8D9CF8836B9F2982F9F7D955481
:100750009330C0F0833681F18337A1F1833509F0FE
:100760005BC0D801CD90DD908D016B2D70E056FC03
:1007700002C06FEF7FEFC6010E94FE045C01689427
:1007800057F80AC00C5F1F4FEFE3E983AA24A39434
:10079000B12C6401E89457F853FE29C0342CA114FD
:1007A000B10451F5332009F46DCFB70180E290E038
:1007B0000E9414053A94F6CFD8018C9189830E5F7C
:1007C0001F4FE4CFF801C190D1908F016B2D70E0E5
:1007D00056FC02C06FEF7FEFC6010E9409055C0165
:1007E000D9CFB70180E290E00E9414054A944A14E0
:1007F0001B0409F0B0F7D2CFF60157FC859157FEE4
:1008000081916F01B70190E00E94140531103A9474
:10081000B1E0AB1AB108C3CF843619F0893609F0BC
:1008200071C0F80157FE67C06191719181919191FA
:100830008F01E52DEF76DE2E97FF09C0909580950C
:10084000709561957F4F8F4F9F4F6894D7F82AE03E
:1008500030E0A4010E944405C82EC818AC2C5D2CC1
:10086000D6FE0CC0E89450F8CB1440F4D4FE05C07A
:10087000D2FC03C05D2D5E7E552EAB2C54FE93C082
:10088000FE01EC0DF11D8081803309F085C0652DDE
:10089000697E562E752D7870372E53FC93C050FE0E
:1008A0008DC0BC2CA41410F4B40CBA1854FE90C023
:1008B000B70180E390E00E94140552FE07C088E76C
:1008C00051FC88E590E0B7010E941405CB1408F4B0
:1008D0008BC0CA94D12C8FEFC81AD80AC80CD91C67
:1008E000D6018E916D01B70190E00E9414058C1421
:1008F0009D04B1F757CF61917191072E000C880BC1
:10090000990B96CFD52CE894D4F82AE0853729F1B5
:10091000F52DF97FDF2E8037A1F058F48835A1F04E
:100920008F36D1F0F701868197812F96E2E10C9402
:10093000BE058837B9F7D4FE02C06894D2F820E12A
:100940000CC06894D4F8F7CF54FE03C02F2F266054
:10095000D22E20E132E002C028E030E0F801D7FEDC
:1009600015C041915191619171914C875D876E875E
:100970007F878F01A4016C857D858E859F850E9470
:100980004405C82EC818E894D7F868CF8191919192
:10099000AC0170E060E0E9CF52FC02C0A3947ACFD2
:1009A000A394A39477CF852D867809F473CFF6CFDF
:1009B000B70180E290E00E941405A394A414C0F350
:1009C000312C74CF342C3A18A41408F46FCFF8CF1C
:1009D000852D867809F47ACF8BE251FE80E257FCB0
:1009E0008DE2B70190E070CFB70180E390E00E9404
:1009F0001405BA946BCF8FEF9FEF97CFFC01059052
:100A0000615070400110D8F7809590958E0F9F1F10
:100A10000895FC016150704001900110D8F7809555
:100A200090958E0F9F1F08950F931F93CF93DF9381
:100A3000182F092FEB018B8181FD09C01FEF0FEFEC
:100A4000812F902FDF91CF911F910F91089582FFF9
:100A500014C02E813F818C819D81281739073CF479
:100A6000E881F981CF0101969983888310838E8173
:100A70009F8101969F838E83E3CFE885F985812F3F
:100A80000995892BA1F3DACFFA01AA27283051F171
:100A9000203181F1E8946F936E7F6E5F7F4F8F4FAF
:100AA0009F4FAF4FB1E03ED0B4E03CD0670F781F0E
:100AB000891F9A1FA11D680F791F8A1F911DA11DF3
:100AC0006A0F711D811D911DA11D20D009F468942C
:100AD0003F912AE0269F11243019305D3193DEF6D4
:100AE000CF010895462F4770405D4193B3E00FD08A
:100AF000C9F7F6CF462F4F70405D4A3318F0495D75
:100B000031FD4052419302D0A9F7EACFB4E0A69557
:100B10009795879577956795BA95C9F70097610579
:100B2000710508959B01AC010A2E069457954795CF
:100B300037952795BA95C9F7620F731F841F951FC4
:100B4000A01D08952F923F924F925F926F927F92D5
:100B50008F929F92AF92BF92CF92DF92EF92FF92CD
:100B60000F931F93CF93DF93CDB7DEB7CA1BDB0B79
:100B70000FB6F894DEBF0FBECDBF09942A8839881E
:100B800048885F846E847D848C849B84AA84B98425
:100B9000C884DF80EE80FD800C811B81AA81B98131
:100BA000CE0FD11D0FB6F894DEBF0FBECDBFED0145
:100BB0000895F894FFCFB100C000C900CF00D8005D
:060BC000E200E400E90080
:040BC6002575200071
:00000001FF
