:100000000C943E000C9448000C9448000C9448005A
:100010000C9448000C9448000C9448000C94480040
:100020000C9448000C9448000C9448000C94480030
:100030000C9448000C9448000C9448000C94480020
:100040000C9448000C9448000C9448000C94480010
:100050000C9448000C9448000C9448000C94480000
:100060000C9448000C9448000C9448000C944800F0
:100070000C9448000C9448000C94480011241FBEB6
:10008000CFEFD8E0DEBFCDBF0E94B9040C947F064D
:100090000C9400000F93CF93DF93EC01FC01329698
:1000A00080E2DF011D928A95E9F701E020E041E25C
:1000B00050E062E270E0CE0185960E942A03CE01F4
:1000C0008B960E943604CE018C960E94FE02188206
:1000D0001AA21BA20B98DF91CF910F9108950F9355
:1000E0001F93CF93DF93EC018C010B5D1F4FC80171
:1000F0000E947C0364E086E290E00E94E202882392
:10010000A1F01982C8010E9444032FEF83ED90E310
:10011000215080409040E1F700C00000C801DF910D
:10012000CF911F910F910C94960366E086E290E0C8
:100130000E94E2028111DBCF82E08983C8010E9424
:100140006003E3CFDC011196EC911197E83098F44D
:10015000F0E0EF57F94F92968C9192970C94DD0452
:1001600028E0629FF00111248A0F9B2F911DE80F58
:10017000F91F81E082838C918F5F8C930895FD013C
:10018000E80FF11D39E0639FE00DF11D1124F1CF5F
:10019000FD01E80FF11DE60FF11DEBCF29EF26035E
:1001A000F0011124EA0FFB1FE80FF11DE2CFE82F49
:1001B000F0E038E0639FE019F1091124EA0FFB1F1A
:1001C000D8CF27EFECCF282F261B330BF901F6CF22
:1001D000FD01E80FF11D37E0D6CF63E08C960E9459
:1001E000070396958795969587959C01205131092F
:1001F0002830310580F0295031092530310558F07B
:100200008A35910550F42551310981E025303105B9
:1002100028F080E0089582E0089581E008950F932A
:100220001F93CF93DF93EC018C01045D1F4F63E0BC
:10023000C8010E9407038034910558F08BA18F5F9D
:100240008BA38230A0F381E0DF91CF911F910F91BA
:10025000089580E0F9CFCF92DF92FF920F931F9322
:10026000CF93DF93EC016C018BE2C80ED11CC60169
:100270000E944A04C6010E943C0400E010E02CE009
:1002800032E4B901A801C6010E94B30306E910E0F7
:100290001BA2CE010E940F01F82E882391F000E0EE
:1002A00010E028EC32E4B901A801C6010E94B303B2
:1002B0008F2DDF91CF911F910F91FF90DF90CF9005
:1002C00008958FE99FE00197F1F700C00000015009
:1002D0001109F1F689818730A9F08F5F898308E7DA
:1002E00010E01BA2CE010E940F01F82E8111D7CF82
:1002F0008FE99FE00197F1F700C00000015011095C
:1003000081F7CDCF80E0EACFAF92BF92CF92DF925C
:10031000EF92FF920F931F93CF93DF937C015C01C9
:100320002CE2A20EB11C63E0C5010E9407038836CF
:100330009140D8F56701FBE2CF0ED11CC6010E94A7
:100340003E0400E010E02CE032E440E050E060EFDA
:1003500071E4C6010E94B3032FEF86E191E12150C1
:1003600080409040E1F700C0000063E0C5010E94BA
:100370000703EC01D695C795D695C795F70124A13B
:10038000CE0102962817190609F0D0F4FFEF24E3F6
:100390008CE0F15020408040E1F700C00000F70100
:1003A00084A18C171D0608F4C4A3DF91CF911F917F
:1003B0000F91FF90EF90DF90CF90BF90AF90089596
:1003C000C6010E944A04C6010E943C0400E010E0FD
:1003D0002CE832E4B901A801C6010E94B303EFEC96
:1003E000F7E03197F1F700C0000063E0C5010E941B
:1003F0000703EC01D695C795D695C79500E010E0A8
:1004000028EC32E4B901A801C6010E94B303B6CFBB
:10041000CF92DF92FF920F931F93CF93DF93EC0164
:10042000898111E0811101C017E080E00CC0CE018C
:100430000E942B012FEF39E698E121503040904087
:10044000E1F700C0000099819117B9F1882379F391
:10045000CE010E94ED00F82E6E012BE2C20ED11CDF
:10046000FF20A1F100E010E028EC32E4B901A8017E
:10047000C6010E94B30363E0CE018C960E9407037D
:1004800096958795969587958CA36F2DCE010E94A2
:10049000A2008CA18A35A0F100E010E028EC32E443
:1004A000B901A801C6010E94B303DF91CF911F914A
:1004B0000F91FF90DF90CF9008958111C9CFCE01A9
:1004C0000E942B01882389F31983C2CFC6010E94A1
:1004D0004C04C6010E943A0400E010E020E732E438
:1004E000B901A801C6010E94B3038FEC97E0019700
:1004F000F1F700C00000CE010E94ED00F82EB0CF51
:10050000CE010E948401C5CFCF93DF93D82FC92F8E
:100510000E946F008D2F9C2FDF91CF910C940802C9
:100520009DB321E030E001C0220F8A95EAF7922BBB
:100530009DBB0895FC01842FF894908121E030E068
:1005400001C0220F6A95EAF72095292320830E9493
:100550009002E9E6F0E080818160808380818D7F78
:10056000808378940895FC01842FF894908121E091
:1005700030E001C0220F6A95EAF7209529232083F5
:100580000E949002E9E6F0E08081826080838081B1
:100590008E7F808378940895FC01842FF894908155
:1005A00021E030E001C0220F6A95EAF72095292367
:1005B00020830E949002E9E6F0E0808183608083DE
:1005C00078940895FC01808190E0062E02C09595F4
:1005D00087950A94E2F780FF0FC08FE295E70197B5
:1005E000F1F700C00000808190E002C095958795EA
:1005F0006A95E2F78170089580E0089510927C007A
:1006000086E880937A00089510927A000895809188
:100610007C00807E80937C0080917C006770682BDA
:1006200060937C0080917A00806480937A0080914E
:100630007A0084FFFCCF80917A00806180937A00F9
:10064000209178008091790090E0982F8827820F80
:10065000911D08950F93FC01DA0171836083538328
:100660004283248305833C9141E050E0CA0101C0EC
:10067000880F2A95EAF701C0440F0A95EAF7842B00
:10068000832B8C930F910895FC01A081B1814C9133
:10069000858121E030E0B90102C0660F771F8A959D
:1006A000E2F7CB01809584238C93A081B1818C915A
:1006B000948101C0220F9A95EAF7822B8C930895BA
:1006C000FC01A081B1814C91848121E030E0B9012D
:1006D00002C0660F771F8A95E2F7CB0180958423CD
:1006E0008C93A081B1818C91958101C0220F9A9544
:1006F000EAF7822B8C930895CF93DF93D82FC92FDD
:100700008FE097E20197F1F700C000008D2F9C2F3A
:100710000E9444038FE097E20197F1F700C00000C8
:100720008D2F9C2FDF91CF910C946003FC01A08151
:10073000B1814C91248181E090E0BC0102C0660F40
:10074000771F2A95E2F79B01209524232C93A08103
:10075000B1812C91358101C0880F3A95EAF78095D7
:1007600082238C9308950F931F93CF93DF9300D030
:1007700000D000D0CDB7DEB7942F852F2E833D83D8
:10078000109285001092840020E030E048EC52E4A2
:1007900099838A836B837C8369817A818B819C8135
:1007A0000E94E30420E030E04FE753E469837A835A
:1007B0008B839C8369817A818B819C810E94120644
:1007C00069837A838B839C8369817A818B819C8105
:1007D0000E945505462F572F50938900409388005B
:1007E00020E030E048EC52E409831A838E818B8349
:1007F0008D818C8369817A818B819C810E94E30445
:1008000020E030E04FE753E469837A838B839C8355
:1008100069817A818B819C810E94120669837A8327
:100820008B839C8369817A818B819C810E94550591
:10083000462F572F50938B0040938A00E0E8F0E05A
:100840008081816F8083E1E8F0E080818260808335
:100850001092820026960FB6F894DEBF0FBECDBF71
:10086000DF91CF911F910F91089508958AB18C6304
:100870008AB908955B9808955A980895CF93DF93A5
:10088000D82FC92F0E943A048D2F9C2FDF91CF9132
:100890000C943C045B9A08955A9A0895CF93DF9381
:1008A000D82FC92F0E944A048D2F9C2FDF91CF9102
:1008B0000C944C040F931F93CF93DF9300D000D080
:1008C00000D0CDB7DEB78E839D83662309F444C084
:1008D000643B09F446C0262F30E050E040E0298315
:1008E0003A834B835C83CA01B9010E9486059B0150
:1008F000AC0160E070EA8CE895E40E94E30469834F
:100900007A838B839C8369817A818B819C810E940D
:10091000550584E6861B282F30E050E040E029830F
:100920003A834B835C83CA01B9010E94840500E0CD
:1009300010E09801462F572FBC018E819D810E94A7
:10094000B30326960FB6F894DEBF0FBECDBFDF917E
:10095000CF911F910F91089560E070E088EC92E4D0
:10096000CECF60E070E080E090E0C9CF84E6861BE7
:100970000895CDB7DEB7AD970FB6F894DEBF0FBEC2
:10098000CDBF87B18F7A87B9CE0101960E944A0008
:10099000CE0101960E948402CE018D960E9404032E
:1009A000CE018C960E94350490E080E0AD960FB6A3
:1009B000F894DEBF0FBECDBF0895EE0FFF1F059068
:1009C000F491E02D09940E94F7040C94D8050E943C
:1009D000D10558F00E94CA0540F029F45F3F29F084
:1009E0000C94C10551110C940C060C94C7050E947F
:1009F000E90568F39923B1F3552391F3951B550B42
:100A0000BB27AA2762177307840738F09F5F5F4FE1
:100A1000220F331F441FAA1FA9F335D00E2E3AF020
:100A2000E0E832D091505040E695001CCAF72BD038
:100A3000FE2F29D0660F771F881FBB1F2617370789
:100A40004807AB07B0E809F0BB0B802DBF01FF27BB
:100A500093585F4F3AF09E3F510578F00C94C105D2
:100A60000C940C065F3FE4F3983ED4F3869577959B
:100A70006795B795F7959F5FC9F7880F911D969574
:100A8000879597F90895E1E0660F771F881FBB1FD0
:100A9000621773078407BA0720F0621B730B840B7D
:100AA000BA0BEE1F88F7E09508950E94F10588F0D3
:100AB0009F5798F0B92F9927B751B0F0E1F0660F22
:100AC000771F881F991F1AF0BA95C9F714C0B13063
:100AD00091F00E940B06B1E008950C940B06672F6D
:100AE000782F8827B85F39F0B93FCCF38695779592
:100AF0006795B395D9F73EF490958095709561957B
:100B00007F4F8F4F9F4F0895E89409C097FB3EF4A5
:100B100090958095709561957F4F8F4F9F4F99234A
:100B2000A9F0F92F96E9BB279395F69587957795C8
:100B30006795B795F111F8CFFAF4BB0F11F460FF88
:100B40001BC06F5F7F4F8F4F9F4F16C0882311F0E0
:100B500096E911C0772321F09EE8872F762F05C0F4
:100B6000662371F096E8862F70E060E02AF09A958F
:100B7000660F771F881FDAF7880F9695879597F984
:100B8000089597F99F6780E870E060E008959FEF0F
:100B900080EC089500240A94161617061806090614
:100BA000089500240A9412161306140605060895E3
:100BB000092E0394000C11F4882352F0BB0F40F46B
:100BC000BF2B11F460FF04C06F5F7F4F8F4F9F4FAB
:100BD000089557FD9058440F551F59F05F3F71F02D
:100BE0004795880F97FB991F61F09F3F79F0879594
:100BF0000895121613061406551FF2CF4695F1DF1D
:100C000008C0161617061806991FF1CF86957105AC
:100C1000610508940895E894BB2766277727CB01E0
:100C200097F908950E9425060C94D8050E94CA05DC
:100C300038F00E94D10520F0952311F00C94C105E5
:100C40000C94C70511240C940C060E94E90570F35E
:100C5000959FC1F3950F50E0551F629FF001729F61
:100C6000BB27F00DB11D639FAA27F00DB11DAA1F70
:100C7000649F6627B00DA11D661F829F2227B00DBD
:100C8000A11D621F739FB00DA11D621F839FA00D48
:100C9000611D221F749F3327A00D611D231F849F98
:100CA000600D211D822F762F6A2F11249F575040EF
:100CB0009AF0F1F088234AF0EE0FFF1FBB1F661F6A
:100CC000771F881F91505040A9F79E3F510580F033
:100CD0000C94C1050C940C065F3FE4F3983ED4F3EA
:100CE000869577956795B795F795E7959F5FC1F7D7
:100CF000FE2B880F911D9695879597F90895F89486
:100D0000FFCFB000BF00C800CE00D700E100E30075
:020D1000E800F9
:00000001FF
