:100000000C943E000C945B000C945B000C945D001F
:100010000C945B000C945B000C945B000C945B00F4
:100020000C945B000C945B000C945B000C945B00E4
:100030000C945B000C945B000C945B000C945B00D4
:100040000C945B000C945B000C945B000C945B00C4
:100050000C945B000C945B000C945B000C945B00B4
:100060000C945B000C945B000C945B000C945B00A4
:100070000C945B000C945B000C945B0011241FBE7D
:10008000CFEFD8E0DEBFCDBF11E0A0E0B1E0EAEBFA
:10009000F5E102C005900D92A230B107D9F721E039
:1000A000A2E0B1E001C01D92A330B207E1F70E94C7
:1000B00085080C94AE0A0C9400008F938FB78F9331
:1000C0009F938FE59AEE0197F1F700C000001A9B0D
:1000D00003C081E080930201E29A9F918F918FBFCC
:1000E0008F9118950F93CF93DF93EC01FC0132961B
:1000F00080E2DF011D928A95E9F701E020E041E20C
:1001000050E062E270E0CE0186960E942504CE01A6
:100110008C960E943105CE018D960E94F9038AB11A
:10012000806C8AB95E98E1EBF0E080818460808326
:10013000E0EBF0E080818264808318821AA21BA227
:100140001DA20B98DF91CF910F9108950F931F93EC
:10015000CF93DF93EC018C010A5D1F4FC8010E9411
:10016000770462E083E290E00E94DD038823A1F03F
:100170001982C8010E943F042FEF83ED90E32150C4
:1001800080409040E1F700C00000C801DF91CF91AE
:100190001F910F910C94910466E086E290E00E941A
:1001A000DD038111DBCF82E08983C8010E945B04FB
:1001B000E3CFDC011196EC911197E83098F4F0E070
:1001C000E055F54F92968C9192970C949F0828E0F9
:1001D000629FF00111248A0F9B2F911DE80FF91FD8
:1001E00081E082838C918F5F8C930895FD01E80FED
:1001F000F11D39E0639FE00DF11D1124F1CFFD01E8
:10020000E80FF11DE60FF11DEBCF29EF2603F001FA
:100210001124EA0FFB1FE80FF11DE2CFE82FF0E0F9
:1002200038E0639FE019F1091124EA0FFB1FD8CFD2
:1002300027EFECCF282F261B330BF901F6CFFD015A
:10024000E80FF11D37E0D6CF0F931F93CF93DF93C5
:100250008C01EC01AD960A5D1F4F63E0CE010E9458
:10026000020496958795969587959C0125523109AC
:100270002630310580F02D5031092531310558F0F7
:10028000803A910570F485559109849750F0C80122
:100290000E945B04E2CF82E0DF91CF911F910F912A
:1002A000089581E0F9CF0F931F93CF93DF93EC0173
:1002B0008C01035D1F4F63E0C8010E940204843972
:1002C000910558F08BA18F5F8BA38230A0F381E062
:1002D000DF91CF911F910F91089580E0F9CFCF92D8
:1002E000DF92FF920F931F93CF93DF93EC016C018A
:1002F0008CE2C80ED11CC6010E944505C6010E94B1
:10030000370500E010E02CE032E4B901A801C60195
:100310000E94AE0406E910E01BA2CE010E94530128
:10032000F82E882391F000E010E028EC32E4B901C7
:10033000A801C6010E94AE048F2DDF91CF911F91BD
:100340000F91FF90DF90CF9008958FE99FE0019784
:10035000F1F700C0000001501109F1F689818730E2
:10036000A9F08F5F898308E710E01BA2CE010E94ED
:100370005301F82E8111D7CF8FE99FE00197F1F754
:1003800000C000000150110981F7CDCF80E0EACF15
:10039000AF92BF92CF92DF92EF92FF920F931F9393
:1003A000CF93DF937C015C012DE2A20EB11C63E0D0
:1003B000C5010E94020480389240C8F56701FCE242
:1003C000CF0ED11CC6010E94390500E010E02CE0E0
:1003D00032E440E050E060EF71E4C6010E94AE04F8
:1003E0002FEF84E39CE0215080409040E1F700C073
:1003F000000063E0C5010E940204EC01D695C79598
:10040000D695C795F70184A18C171D0609F0D0F485
:10041000FFEF24E38CE0F15020408040E1F700C082
:100420000000F70184A18C171D0608F4C4A3DF9116
:10043000CF911F910F91FF90EF90DF90CF90BF90E1
:10044000AF900895C6010E944505C6010E94370578
:1004500000E010E02CE832E4B901A801C6010E94D6
:10046000AE04EFECF7E03197F1F700C0000063E075
:10047000C5010E940204EC01D695C795D695C79593
:1004800000E010E028EC32E4B901A801C6010E94A6
:10049000AE04B8CFCF92DF92EF92FF920F931F93EB
:1004A000CF93DF93EC01898111E0811101C017E046
:1004B00080E00CC0CE010E946F012FEF39E698E179
:1004C000215030409040E1F700C000009981911721
:1004D00009F45BC0882371F3CE010E942401F82E39
:1004E0006E012CE2C20ED11CFF2009F462C000E0B4
:1004F00010E028EC32E4B901A801C6010E94AE0464
:1005000063E0CE018D960E9402049695879596959C
:1005100087958CA36F2DCE010E94D90018E07E0133
:1005200096E2E90EF11C8CA1803A40F4CE010E94C3
:10053000C801C7010E9477041150A9F700E010E03C
:1005400028EC32E4B901A801C6010E94AE0413E010
:10055000AE9661E5CE010E9478072FEF32E587E085
:10056000215030408040E1F700C00000CE010E94E1
:100570007F089FEF22E537E0915020403040E1F7BF
:1005800000C00000115029F709C08111A5CFCE018C
:100590000E946F0181110BC081E08DA3DF91CF918B
:1005A0001F910F91FF90EF90DF90CF9008951983E6
:1005B00093CFC6010E944705C6010E94350500E0A1
:1005C00010E020E732E4B901A801C6010E94AE04A0
:1005D0008FEC97E00197F1F700C00000CE010E9478
:1005E0002401F82E81CF0F931F93CF93DF93EC015B
:1005F0000E94A600CE010E944A02EA9ACE01869687
:10060000182F092F8DA1882329F0DF91CF911F91F9
:100610000F910895812F902F0E94770480910201FD
:10062000882381F3EA98CE010E944A0210920201C7
:10063000EA9AE8CF0F931F93CF93DF930F92CDB732
:10064000DEB78C01CE0101960E94BE05A8014E5F67
:100650005F4F20E270E060E0CE0101960E943E070D
:10066000CE0101960E94B4050F90DF91CF911F91AA
:100670000F910895EC018C01025D1F4F6DE2C801DE
:100680000E9478072FEF83ED90E321508040904047
:10069000E1F700C00000C8010E947F08A696CE01C5
:1006A0000E945B042FE78AE196E021508040904051
:1006B000E1F700C00000CE010E9491042FE78AE11B
:1006C00096E0215080409040E1F700C00000CE014C
:1006D0000E945B042FE78AE196E021508040904021
:1006E000E1F700C00000CE010E9491042FE78AE1EB
:1006F00096E0215080409040E1F700C00000CFCF4D
:10070000F89487B18B7B87B9E9E6F0E0808180635C
:100710008083789408959DB321E030E001C0220FDA
:100720008A95EAF7922B9DBB0895FC01842FF894DB
:10073000908121E030E001C0220F6A95EAF7209510
:10074000292320830E948B03E9E6F0E08081816009
:10075000808380818D7F808378940895FC01842F2D
:10076000F894908121E030E001C0220F6A95EAF709
:100770002095292320830E948B03E9E6F0E0808105
:100780008260808380818E7F808378940895FC01CD
:10079000842FF894908121E030E001C0220F6A9507
:1007A000EAF72095292320830E948B03E9E6F0E0F5
:1007B00080818360808378940895FC01808190E03B
:1007C000062E02C0959587950A94E2F780FF0FC028
:1007D0008FE097E20197F1F700C00000808190E080
:1007E00002C0959587956A95E2F78170089580E03B
:1007F000089510927C0086E880937A000895109204
:100800007A00089580917C00807E80937C008091A6
:100810007C006770682B60937C0080917A00806414
:1008200080937A0080917A0084FFFCCF80917A00D7
:10083000806180937A00209178008091790090E027
:10084000982F8827820F911D08950F93FC01DA01DC
:100850007183608353834283248305833C9141E009
:1008600050E0CA0101C0880F2A95EAF701C0440F81
:100870000A95EAF7842B832B8C930F910895FC0142
:10088000A081B1814C91858121E030E0B90102C0A5
:10089000660F771F8A95E2F7CB01809584238C93AE
:1008A000A081B1818C91948101C0220F9A95EAF7C1
:1008B000822B8C930895FC01A081B1814C9184819D
:1008C00021E030E0B90102C0660F771F8A95E2F798
:1008D000CB01809584238C93A081B1818C919581EB
:1008E00001C0220F9A95EAF7822B8C930895CF933B
:1008F000DF93D82FC92F8FE097E20197F1F700C05F
:1009000000008D2F9C2F0E943F048FE097E20197FB
:10091000F1F700C000008D2F9C2FDF91CF910C9438
:100920005B04FC01A081B1814C91248181E090E0C5
:10093000BC0102C0660F771F2A95E2F79B01209544
:1009400024232C93A081B1812C91358101C0880F83
:100950003A95EAF7809582238C9308950F931F931D
:10096000CF93DF9300D000D000D0CDB7DEB7942F67
:10097000852F2E833D83109285001092840020E005
:1009800030E048EC52E499838A836B837C836981ED
:100990007A818B819C810E94120920E030E04FE730
:1009A00053E469837A838B839C8369817A818B8109
:1009B0009C810E94410A69837A838B839C8369812D
:1009C0007A818B819C810E948409462F572F5093F6
:1009D00089004093880020E030E048EC52E409832D
:1009E0001A838E818B838D818C8369817A818B813F
:1009F0009C810E94120920E030E04FE753E46983B4
:100A00007A838B839C8369817A818B819C810E940C
:100A1000410A69837A838B839C8369817A818B8184
:100A20009C810E948409462F572F50938B0040933E
:100A30008A00E0E8F0E08081816F8083E1E8F0E007
:100A40008081826080831092820026960FB6F8948F
:100A5000DEBF0FBECDBFDF91CF911F910F910895E3
:100A600008958AB18C638AB908955B9808955A985D
:100A70000895CF93DF93D82FC92F0E9435058D2F6E
:100A80009C2FDF91CF910C9437055B9A08955A9A69
:100A90000895CF93DF93D82FC92F0E9445058D2F3E
:100AA0009C2FDF91CF910C9447050F931F93CF9309
:100AB000DF9300D000D000D0CDB7DEB78E839D830A
:100AC000662309F444C0643B09F446C0262F30E095
:100AD00050E040E029833A834B835C83CA01B9012B
:100AE0000E94B5099B01AC0160E070EA8CE895E4D6
:100AF0000E94120969837A838B839C8369817A813E
:100B00008B819C810E94840984E6861B282F30E01B
:100B100050E040E029833A834B835C83CA01B901EA
:100B20000E94B30900E010E09801462F572FBC0146
:100B30008E819D810E94AE0426960FB6F894DEBF8A
:100B40000FBECDBFDF91CF911F910F91089560E04F
:100B500070E088EC92E4CECF60E070E080E090E05E
:100B6000C9CF84E6861B0895089580EA809300012A
:100B70001092B90080E28093B8000895FC0180E8EB
:100B80008083CF010C94B505982F9370891305C00D
:100B9000880F806A8093000108958FEF0895FA010D
:100BA00094EA24E89093BC008091BC0087FFFCCFBE
:100BB000809100018093BB002093BC008091BC0019
:100BC00087FFFCCF8091B900883161F784EA809378
:100BD000BC008091BC0087FFFCCF80910001809316
:100BE000BB0084E88093BC008091BC0087FFFCCFF1
:100BF0007093BB0084E88093BC008091BC0087FFA9
:100C0000FCCF6093BB0084E88093BC008091BC0063
:100C100087FFFCCF8091BC0087FFFCCF84EA8093E4
:100C2000BC008091BC0087FFFCCF809100018F5FEA
:100C30008093BB0084E88093BC008091BC0087FF58
:100C4000FCCF84E88093BC008091BC0087FFFCCF80
:100C50008091BB00808384E98093BC0080E008958C
:100C600094EA34E89093BC008091BC0087FFFCCFED
:100C7000809100018093BB003093BC008091BC0048
:100C800087FFFCCF8091B900883161F784EA8093B7
:100C9000BC008091BC0087FFFCCF80910001809355
:100CA000BB0084E88093BC008091BC0087FFFCCF30
:100CB0007093BB0084E88093BC008091BC0087FFE8
:100CC000FCCF6093BB0084E88093BC008091BC00A3
:100CD00087FFFCCF84EA8093BC008091BC0087FF33
:100CE000FCCF809100018F5F8093BB0084E88093EC
:100CF000BC008091BC0087FFFCCF84EC211105C0B3
:100D000084E98093BC0080E00895213009F484E8F0
:100D10008093BC009091BC0097FFFCCFFA019091AA
:100D2000BB0091932150AF01E9CF94EA24E890935E
:100D3000BC008091BC0087FFFCCF809100018093B4
:100D4000BB002093BC008091BC0087FFFCCF80914A
:100D5000B900883161F784EA8093BC008091BC00BF
:100D600087FFFCCF809100018093BB0084E88093D3
:100D7000BC008091BC0087FFFCCF7093BB0084E86F
:100D80008093BC008091BC0087FFFCCF6093BB00C8
:100D900084E88093BC008091BC0087FFFCCF409327
:100DA000BB0084E88093BC008091BC0087FFFCCF2F
:100DB00084E98093BC0080E00895FB01260F372F63
:100DC000311DDC018C918150990B862B9F2B2817AC
:100DD000390718F09C012F5F3F4F822F8E1B24EAAA
:100DE00034E82093BC009091BC0097FFFCCF909119
:100DF00000019093BB003093BC009091BC0097FF22
:100E0000FCCF9091B900983161F794EA9093BC00BF
:100E10009091BC0097FFFCCF909100019093BB0094
:100E200094E89093BC009091BC0097FFFCCFF093A6
:100E3000BB0094E89093BC009091BC0097FFFCCF5E
:100E4000E093BB0094E89093BC009091BC0097FFA6
:100E5000FCCF982F24E8911104C094E99093BC0032
:100E60000895FA0131913093BB002093BC0030917A
:100E7000BC0037FFFCCF9150AF01EDCFDF92EF9276
:100E8000FF920F931F93CF93DF93D82ED92F7B011F
:100E90008A01C22F2C2FA801B7018D2D9D2F0E94F2
:100EA000DD06282F30E0E20EF31EC81B020F131FD1
:100EB000C111F0CF80E0DF91CF911F910F91FF9092
:100EC000EF90DF9008958091C00085FFFCCF609384
:100ED000C60008951092C5008FEC8093C400109254
:100EE000C00088E18093C10086E08093C20008952D
:100EF000CF93DF9300D000D0CDB7DEB7DC016D52C9
:100F0000653278F4E62FF0E0E854F54F0C949F0832
:100F100040E050E06CED72E44D935D936D937C93F3
:100F200013971092B2008091B00080648093B0005B
:100F300020E030E040E054E46D917D918D919C91F2
:100F40000E94410A9B01AC0160E074E284EF9AE4E4
:100F50000E94120920E030E040E85FE369837A8371
:100F60008B839C8369817A818B819C810E94A508F7
:100F700069837A838B839C8369817A818B819C814D
:100F80000E9484096093B3000F900F900F900F9010
:100F9000DF91CF9108954BE754E169EE72E4BCCF45
:100FA00044EA50EF66EF72E4B7CF4CE55FEC62E0E5
:100FB00073E4B2CF4AE057E96AE073E4ADCF4BE7A0
:100FC00054ED62E173E4A8CF4CE55FE86BE173E4B4
:100FD000A3CF4CE55FEC64E273E49ECF49E25CE9A9
:100FE0006EE273E499CF40E050E069E373E494CF9C
:100FF00040E050E064E473E48FCF46E656EA6FE4E5
:1010000073E48ACF40E050E06CE573E485CF4BE7B2
:1010100054E169E673E480CF44EA50EF66E773E495
:101020007BCF44EA50ED62E873E476CF4AE057E9BB
:101030006AE873E471CF4BE754ED62E973E46CCF77
:1010400044EA50E96BE973E467CF44EA50ED64EA9F
:1010500073E462CF41E75DE96EEA73E45DCF48EB8C
:101060005EEF68EB73E458CF40E050E064EC73E46B
:1010700053CF46E656EA6FEC73E44ECF40E050E0C3
:101080006CED73E449CF4BE754E169EE73E444CF70
:1010900044EA50EF66EF73E43FCF40E050ED62E08A
:1010A00074E43ACF4EEA57E96AE074E435CF4FE191
:1010B00055ED62E174E430CF40E050E96BE174E457
:1010C0002BCF44EA50ED64E274E426CF41E75DE9BA
:1010D0006EE274E421CF4CE55FEF68E374E41CCF6B
:1010E0004CE55FEF63E474E417CF4AE057EA6FE43E
:1010F00074E412CF40E050E06CE574E40DCFE0EB17
:10110000F0E080818F7B80830895CDB7DEB7E297D2
:101110000FB6F894DEBF0FBECDBF0E948003CE0194
:1011200001960E947200CE0101960E94F302CE0148
:1011300001960E941A03CE0101960E943A03EE0F17
:10114000FF1F0590F491E02D09945058BB27AA2762
:101150000E94BD080C94070A0E94F90938F00E9409
:10116000000A20F039F49F3F19F426F40C94F60994
:101170000EF4E095E7FB0C94F009E92F0E94180AA1
:1011800058F3BA17620773078407950720F079F4BC
:10119000A6F50C943A0A0EF4E0950B2EBA2FA02D6A
:1011A0000B01B90190010C01CA01A0011124FF2714
:1011B000591B99F0593F50F4503E68F11A16F0400F
:1011C000A22F232F342F4427585FF3CF469537950E
:1011D0002795A795F0405395C9F77EF41F16BA0BD3
:1011E000620B730B840BBAF09150A1F0FF0FBB1F81
:1011F000661F771F881FC2F70EC0BA0F621F731FCA
:10120000841F48F4879577956795B795F7959E3F26
:1012100008F0B0CF9395880F08F09927EE0F9795B7
:10122000879508950E9426090C94070A0E94000AD7
:1012300058F00E94F90940F029F45F3F29F00C941E
:10124000F00951110C943B0A0C94F6090E94180AFB
:1012500068F39923B1F3552391F3951B550BBB27E5
:10126000AA2762177307840738F09F5F5F4F220F2A
:10127000331F441FAA1FA9F335D00E2E3AF0E0E821
:1012800032D091505040E695001CCAF72BD0FE2F6B
:1012900029D0660F771F881FBB1F261737074807FF
:1012A000AB07B0E809F0BB0B802DBF01FF279358B7
:1012B0005F4F3AF09E3F510578F00C94F0090C9482
:1012C0003B0A5F3FE4F3983ED4F3869577956795A4
:1012D000B795F7959F5FC9F7880F911D96958795EC
:1012E00097F90895E1E0660F771F881FBB1F62170B
:1012F00073078407BA0720F0621B730B840BBA0BC9
:10130000EE1F88F7E09508950E94200A88F09F5705
:1013100098F0B92F9927B751B0F0E1F0660F771F19
:10132000881F991F1AF0BA95C9F714C0B13091F00F
:101330000E943A0AB1E008950C943A0A672F782F78
:101340008827B85F39F0B93FCCF3869577956795D4
:10135000B395D9F73EF490958095709561957F4F40
:101360008F4F9F4F0895E89409C097FB3EF49095E6
:101370008095709561957F4F8F4F9F4F9923A9F06E
:10138000F92F96E9BB279395F695879577956795FD
:10139000B795F111F8CFFAF4BB0F11F460FF1BC041
:1013A0006F5F7F4F8F4F9F4F16C0882311F096E9D4
:1013B00011C0772321F09EE8872F762F05C0662382
:1013C00071F096E8862F70E060E02AF09A95660F3B
:1013D000771F881FDAF7880F9695879597F90895F4
:1013E00097F99F6780E870E060E008959FEF80ECD8
:1013F000089500240A94161617061806090608957B
:1014000000240A9412161306140605060895092EE0
:101410000394000C11F4882352F0BB0F40F4BF2B4F
:1014200011F460FF04C06F5F7F4F8F4F9F4F08958F
:1014300057FD9058440F551F59F05F3F71F0479585
:10144000880F97FB991F61F09F3F79F0879508956A
:10145000121613061406551FF2CF4695F1DF08C089
:10146000161617061806991FF1CF869571056105A6
:1014700008940895E894BB2766277727CB0197F94E
:1014800008950E94540A0C94070A0E94F90938F042
:101490000E94000A20F0952311F00C94F0090C949E
:1014A000F60911240C943B0A0E94180A70F3959FC8
:1014B000C1F3950F50E0551F629FF001729FBB274B
:1014C000F00DB11D639FAA27F00DB11DAA1F649FE7
:1014D0006627B00DA11D661F829F2227B00DA11D9A
:1014E000621F739FB00DA11D621F839FA00D611D20
:1014F000221F749F3327A00D611D231F849F600D41
:10150000211D822F762F6A2F11249F5750409AF069
:10151000F1F088234AF0EE0FFF1FBB1F661F771FF5
:10152000881F91505040A9F79E3F510580F00C94C0
:10153000F0090C943B0A5F3FE4F3983ED4F38695A0
:1015400077956795B795F795E7959F5FC1F7FE2B60
:10155000880F911D9695879597F90895F894FFCF78
:10156000E700F600FF0005010E0118011A011F0136
:101570008807CB07D007D507DA07DF07E407E907B5
:10158000EE07F307F807FD07020807080C08110823
:1015900016081B08200825082A082F0834083908CF
:1015A0003E08430848084D08520857085C0861087F
:0A15B00066086B08700875087A08D9
:0215BA00A0008F
:00000001FF
