:100000000C943E000C9448000C9448000C9448005A
:100010000C9448000C9448000C9448000C94480040
:100020000C9448000C9448000C9448000C94480030
:100030000C9448000C9448000C9448000C94480020
:100040000C9448000C9448000C9448000C94480010
:100050000C9448000C9448000C9448000C94480000
:100060000C9448000C9448000C9448000C944800F0
:100070000C9448000C9448000C94480011241FBEB6
:10008000CFEFD8E0DEBFCDBF0E9469030C942B05F3
:100090000C9400000F93CF93DF93EC01FC01329698
:1000A00080E2DF011D928A95E9F701E020E041E25C
:1000B00050E062E270E0CE0183960E94DA01CE0148
:1000C00089960E94E60218821AA2DF91CF910F91C1
:1000D00008950F931F93CF93DF93EC018C010D5D77
:1000E0001F4FC8010E942C0264E086E290E00E944B
:1000F00092018823A1F01982C8010E94F4012FEF18
:1001000083ED90E3215080409040E1F700C0000073
:10011000C801DF91CF911F910F910C94460266E0C8
:1001200086E290E00E9492018111DBCF82E0898318
:10013000C8010E941002E3CFDC011196EC911197E7
:10014000E83098F4F0E0E35DFA4F92968C91929744
:100150000C94890328E0629FF00111248A0F9B2FE1
:10016000911DE80FF91F81E082838C918F5F8C9342
:100170000895FD01E80FF11D39E0639FE00DF11DC9
:100180001124F1CFFD01E80FF11DE60FF11DEBCFBA
:1001900029EF2603F0011124EA0FFB1FE80FF11DE0
:1001A000E2CFE82FF0E038E0639FE019F109112475
:1001B000EA0FFB1FD8CF27EFECCF282F261B330BDE
:1001C000F901F6CFFD01E80FF11D37E0D6CF0F930F
:1001D0001F93CF93DF930F92CDB7DEB78E010F5FE2
:1001E0001F4FC8010E94AE010B988FE097E2019764
:1001F000F1F700C0000063E0C8010E94B7019C0154
:100200003695279536952795A9014F505109C80174
:1002100044305105C8F04850510945305105A0F00F
:1002200011E02A35310538F42E52310911E025301C
:10023000310508F010E00E94B401812F0F90DF918A
:10024000CF911F910F91089512E0F5CF0895CF93AC
:10025000DF93D82FC92F0E94E700682F8D2F9C2F86
:10026000DF91CF910C949C00CF93DF93D82FC92FAF
:100270000E9469008D2F9C2FDF91CF910C94270154
:100280009DB321E030E001C0220F8A95EAF7922B5E
:100290009DBB0895FC01842FF894908121E030E00B
:1002A00001C0220F6A95EAF72095292320830E9436
:1002B0004001E9E6F0E080818160808380818D7F6C
:1002C000808378940895FC01842FF894908121E034
:1002D00030E001C0220F6A95EAF720952923208398
:1002E0000E944001E9E6F0E08081826080838081A5
:1002F0008E7F808378940895FC01842FF8949081F8
:1003000021E030E001C0220F6A95EAF72095292309
:1003100020830E944001E9E6F0E0808183608083D1
:1003200078940895FC01808190E0062E02C0959596
:1003300087950A94E2F780FF0FC08FE295E7019757
:10034000F1F700C00000808190E002C0959587958C
:100350006A95E2F78170089580E0089510927C001C
:1003600086E880937A00089510927A00089580912B
:100370007C00807E80937C0080917C006770682B7D
:1003800060937C0080917A00806480937A008091F1
:100390007A0084FFFCCF80917A00806180937A009C
:1003A000209178008091790090E0982F8827820F23
:1003B000911D08950F93FC01DA01718360835383CB
:1003C0004283248305833C9141E050E0CA0101C08F
:1003D000880F2A95EAF701C0440F0A95EAF7842BA3
:1003E000832B8C930F910895FC01A081B1814C91D6
:1003F000858121E030E0B90102C0660F771F8A9540
:10040000E2F7CB01809584238C93A081B1818C91FC
:10041000948101C0220F9A95EAF7822B8C9308955C
:10042000FC01A081B1814C91848121E030E0B901CF
:1004300002C0660F771F8A95E2F7CB01809584236F
:100440008C93A081B1818C91958101C0220F9A95E6
:10045000EAF7822B8C930895CF93DF93D82FC92F7F
:100460008FE097E20197F1F700C000008D2F9C2FDD
:100470000E94F4018FE097E20197F1F700C00000BD
:100480008D2F9C2FDF91CF910C941002FC01A08145
:10049000B1814C91248181E090E0BC0102C0660FE3
:1004A000771F2A95E2F79B01209524232C93A081A6
:1004B000B1812C91358101C0880F3A95EAF780957A
:1004C00082238C9308950F931F93CF93DF9300D0D3
:1004D00000D000D0CDB7DEB7942F852F2E833D837B
:1004E000109285001092840020E030E048EC52E445
:1004F00099838A836B837C8369817A818B819C81D8
:100500000E948F0320E030E04FE753E469837A8351
:100510008B839C8369817A818B819C810E94BE043C
:1005200069837A838B839C8369817A818B819C81A7
:100530000E940104462F572F509389004093880052
:1005400020E030E048EC52E409831A838E818B83EB
:100550008D818C8369817A818B819C810E948F033C
:1005600020E030E04FE753E469837A838B839C83F8
:1005700069817A818B819C810E94BE0469837A8320
:100580008B839C8369817A818B819C810E94010489
:10059000462F572F50938B0040938A00E0E8F0E0FD
:1005A0008081816F8083E1E8F0E0808182608083D8
:1005B0001092820026960FB6F894DEBF0FBECDBF14
:1005C000DF91CF911F910F91089508958AB18C63A7
:1005D0008AB908955B9808955A980895CF93DF9348
:1005E000D82FC92F0E94EA028D2F9C2FDF91CF9127
:1005F0000C94EC025B9A08955A9A0895CF93DF9376
:10060000D82FC92F0E94FA028D2F9C2FDF91CF91F6
:100610000C94FC020F931F93CF93DF9300D000D074
:1006200000D0CDB7DEB78E839D83662309F444C026
:10063000643B09F446C0262F30E050E040E02983B7
:100640003A834B835C83CA01B9010E9432049B0147
:10065000AC0160E070EA8CE895E40E948F03698346
:100660007A838B839C8369817A818B819C810E94B0
:10067000010484E6861B282F30E050E040E0298307
:100680003A834B835C83CA01B9010E94300400E0C5
:1006900010E09801462F572FBC018E819D810E944A
:1006A000630226960FB6F894DEBF0FBECDBFDF9172
:1006B000CF911F910F91089560E070E088EC92E473
:1006C000CECF60E070E080E090E0C9CF84E6861B8A
:1006D0000895CDB7DEB7AA970FB6F894DEBF0FBE68
:1006E000CDBF87B18F7A87B9CE0101960E944A00AB
:1006F000CE0101960E943401CE018A960E94E50245
:1007000090E080E0AA960FB6F894DEBF0FBECDBF92
:100710000895EE0FFF1F0590F491E02D09940E94BB
:10072000A3030C9484040E947D0458F00E94760474
:1007300040F029F45F3F29F00C946D0451110C94A2
:10074000B8040C9473040E94950468F39923B1F3E0
:10075000552391F3951B550BBB27AA2762177307E7
:10076000840738F09F5F5F4F220F331F441FAA1F7B
:10077000A9F335D00E2E3AF0E0E832D09150504037
:10078000E695001CCAF72BD0FE2F29D0660F771FE5
:10079000881FBB1F261737074807AB07B0E809F0CB
:1007A000BB0B802DBF01FF2793585F4F3AF09E3F50
:1007B000510578F00C946D040C94B8045F3FE4F399
:1007C000983ED4F3869577956795B795F7959F5F93
:1007D000C9F7880F911D9695879597F90895E1E0DF
:1007E000660F771F881FBB1F621773078407BA073E
:1007F00020F0621B730B840BBA0BEE1F88F7E09599
:1008000008950E949D0488F09F5798F0B92F99276A
:10081000B751B0F0E1F0660F771F881F991F1AF0EB
:10082000BA95C9F714C0B13091F00E94B704B1E095
:1008300008950C94B704672F782F8827B85F39F094
:10084000B93FCCF3869577956795B395D9F73EF484
:1008500090958095709561957F4F8F4F9F4F08952C
:10086000E89409C097FB3EF490958095709561954A
:100870007F4F8F4F9F4F9923A9F0F92F96E9BB2700
:100880009395F695879577956795B795F111F8CF7C
:10089000FAF4BB0F11F460FF1BC06F5F7F4F8F4FE7
:1008A0009F4F16C0882311F096E911C0772321F0DD
:1008B0009EE8872F762F05C0662371F096E8862F75
:1008C00070E060E02AF09A95660F771F881FDAF7CC
:1008D000880F9695879597F9089597F99F6780E80F
:1008E00070E060E008959FEF80EC089500240A9482
:1008F0001616170618060906089500240A941216FB
:100900001306140605060895092E0394000C11F42D
:10091000882352F0BB0F40F4BF2B11F460FF04C0DA
:100920006F5F7F4F8F4F9F4F089557FD9058440F33
:10093000551F59F05F3F71F04795880F97FB991F3E
:1009400061F09F3F79F087950895121613061406FB
:10095000551FF2CF4695F1DF08C016161706180688
:10096000991FF1CF86957105610508940895E89463
:10097000BB2766277727CB0197F908950E94D104FA
:100980000C9484040E94760438F00E947D0420F0C8
:10099000952311F00C946D040C94730411240C94A1
:1009A000B8040E94950470F3959FC1F3950F50E031
:1009B000551F629FF001729FBB27F00DB11D639F11
:1009C000AA27F00DB11DAA1F649F6627B00DA11DB7
:1009D000661F829F2227B00DA11D621F739FB00D5D
:1009E000A11D621F839FA00D611D221F749F3327CD
:1009F000A00D611D231F849F600D211D822F762F66
:100A00006A2F11249F5750409AF0F1F088234AF042
:100A1000EE0FFF1FBB1F661F771F881F91505040AE
:100A2000A9F79E3F510580F00C946D040C94B80416
:100A30005F3FE4F3983ED4F3869577956795B79535
:100A4000F795E7959F5FC1F7FE2B880F911D96954F
:100A5000879597F90895F894FFCFAA00B900C200CE
:0A0A6000C800D100DB00DD00E20059
:00000001FF
