:100000000C943E000C9453000C9453000C94530039
:100010000C9453000C9453000C9453000C94530014
:100020000C9453000C9453000C9453000C94530004
:100030000C9453000C9453000C9453000C945300F4
:100040000C9453000C9453000C9453000C945300E4
:100050000C9453000C9453000C9453000C945300D4
:100060000C9453000C9453000C9453000C945300C4
:100070000C9453000C9453000C94530011241FBE95
:10008000CFEFD8E0DEBFCDBF11E0A0E0B1E0E0E20D
:10009000F1E102C005900D92A230B107D9F70E949C
:1000A0002E060C9461080C9400000F93CF93DF93FD
:1000B000EC01FC01329680E2DF011D928A95E9F79E
:1000C00001E020E041E250E062E270E0CE0186967D
:1000D0000E949203CE018C960E949E04CE018D96C2
:1000E0000E9466038AB1806C8AB95E98E1EBF0E009
:1000F000808184608083E0EBF0E080818264808393
:1001000018821AA21BA21DA20B98DF91CF910F910A
:1001100008950F931F93CF93DF93EC018C010A5D39
:100120001F4FC8010E94E40362E083E290E00E9456
:100130004A038823A1F01982C8010E94AC032FEF63
:1001400083ED90E3215080409040E1F700C0000033
:10015000C801DF91CF911F910F910C94FE0366E0CF
:1001600086E290E00E944A038111DBCF82E089831E
:10017000C8010E94C803E3CFDC011196EC911197EE
:10018000E83098F4F0E0ED59F74F92968C91929701
:100190000C94520628E0629FF00111248A0F9B2FD5
:1001A000911DE80FF91F81E082838C918F5F8C9302
:1001B0000895FD01E80FF11D39E0639FE00DF11D89
:1001C0001124F1CFFD01E80FF11DE60FF11DEBCF7A
:1001D00029EF2603F0011124EA0FFB1FE80FF11DA0
:1001E000E2CFE82FF0E038E0639FE019F109112435
:1001F000EA0FFB1FD8CF27EFECCF282F261B330B9E
:10020000F901F6CFFD01E80FF11D37E0D6CF0F93CE
:100210001F93CF93DF938C01EC01AD960A5D1F4FC6
:1002200063E0CE010E946F0396958795969587951A
:100230009C01255231092630310580F02D503109BD
:100240002531310558F0803A910570F485559109B2
:10025000849750F0C8010E94C803E2CF82E0DF918A
:10026000CF911F910F91089581E0F9CF0F931F93C4
:10027000CF93DF93EC018C01035D1F4F63E0C80156
:100280000E946F038439910558F08BA18F5F8BA377
:100290008230A0F381E0DF91CF911F910F910895FB
:1002A00080E0F9CFCF92DF92FF920F931F93CF930D
:1002B000DF93EC016C018CE2C80ED11CC6010E94D8
:1002C000B204C6010E94A40400E010E02CE032E475
:1002D000B901A801C6010E941B0406E910E01BA297
:1002E000CE010E943601F82E882391F000E010E044
:1002F00028EC32E4B901A801C6010E941B048F2D2D
:10030000DF91CF911F910F91FF90DF90CF900895D3
:100310008FE99FE00197F1F700C00000015011093B
:10032000F1F689818730A9F08F5F898308E710E0B3
:100330001BA2CE010E943601F82E8111D7CF8FE982
:100340009FE00197F1F700C000000150110981F70B
:10035000CDCF80E0EACFAF92BF92CF92DF92EF9203
:10036000FF920F931F93CF93DF937C015C012DE2EB
:10037000A20EB11C63E0C5010E946F038038924059
:10038000C8F56701FCE2CF0ED11CC6010E94A6048D
:1003900000E010E02CE032E440E050E060EF71E477
:1003A000C6010E941B042FEF84E39CE02150804093
:1003B0009040E1F700C0000063E0C5010E946F03B8
:1003C000EC01D695C795D695C795F70184A18C17F2
:1003D0001D0609F0D0F4FFEF24E38CE0F15020403B
:1003E0008040E1F700C00000F70184A18C171D06D2
:1003F00008F4C4A3DF91CF911F910F91FF90EF906C
:10040000DF90CF90BF90AF900895C6010E94B204D4
:10041000C6010E94A40400E010E02CE832E4B90117
:10042000A801C6010E941B04EFECF7E03197F1F739
:1004300000C0000063E0C5010E946F03EC01D69587
:10044000C795D695C79500E010E028EC32E4B901D5
:10045000A801C6010E941B04B8CFCF92DF92EF9291
:10046000FF920F931F93CF93DF93EC01898111E0EB
:10047000811101C017E080E00CC0CE010E94520142
:100480002FEF39E698E1215030409040E1F700C06D
:1004900000009981911709F45BC0882371F3CE01A4
:1004A0000E940701F82E6E012CE2C20ED11CFF2023
:1004B00009F462C000E010E028EC32E4B901A801C0
:1004C000C6010E941B0463E0CE018D960E946F035B
:1004D00096958795969587958CA36F2DCE010E9452
:1004E000BC0018E07E0196E2E90EF11C8CA1803A76
:1004F00040F4CE010E94AB01C7010E94E4031150F9
:10050000A9F700E010E028EC32E4B901A801C60127
:100510000E941B0413E0AE966DE2CE010E942105FD
:100520002FEF32E587E0215030408040E1F700C0F6
:100530000000CE010E9428069FEF22E537E091508F
:1005400020403040E1F700C00000115029F709C0F9
:100550008111A5CFCE010E94520181110BC081E013
:100560008DA3DF91CF911F910F91FF90EF90DF90BE
:10057000CF900895198393CFC6010E94B404C60199
:100580000E94A20400E010E020E732E4B901A801D3
:10059000C6010E941B048FEC97E00197F1F700C0A1
:1005A0000000CE010E940701F82E81CF0F931F9308
:1005B000CF93DF93EC010E948900CE010E942D02AF
:1005C000CE018696182F092F8DA1882329F0DF915F
:1005D000CF911F910F910895812F902F0E94E403D6
:1005E00080910001882381F3CE010E942D02ECCF7F
:1005F0009DB321E030E001C0220F8A95EAF7922BEB
:100600009DBB0895FC01842FF894908121E030E097
:1006100001C0220F6A95EAF72095292320830E94C2
:10062000F802E9E6F0E080818160808380818D7F3F
:10063000808378940895FC01842FF894908121E0C0
:1006400030E001C0220F6A95EAF720952923208324
:100650000E94F802E9E6F0E0808182608083808178
:100660008E7F808378940895FC01842FF894908184
:1006700021E030E001C0220F6A95EAF72095292396
:1006800020830E94F802E9E6F0E0808183608083A5
:1006900078940895FC01808190E0062E02C0959523
:1006A00087950A94E2F780FF0FC08FE097E20197E9
:1006B000F1F700C00000808190E002C09595879519
:1006C0006A95E2F78170089580E0089510927C00A9
:1006D00086E880937A00089510927A0008958091B8
:1006E0007C00807E80937C0080917C006770682B0A
:1006F00060937C0080917A00806480937A0080917E
:100700007A0084FFFCCF80917A00806180937A0028
:10071000209178008091790090E0982F8827820FAF
:10072000911D08950F93FC01DA0171836083538357
:100730004283248305833C9141E050E0CA0101C01B
:10074000880F2A95EAF701C0440F0A95EAF7842B2F
:10075000832B8C930F910895FC01A081B1814C9162
:10076000858121E030E0B90102C0660F771F8A95CC
:10077000E2F7CB01809584238C93A081B1818C9189
:10078000948101C0220F9A95EAF7822B8C930895E9
:10079000FC01A081B1814C91848121E030E0B9015C
:1007A00002C0660F771F8A95E2F7CB0180958423FC
:1007B0008C93A081B1818C91958101C0220F9A9573
:1007C000EAF7822B8C930895CF93DF93D82FC92F0C
:1007D0008FE097E20197F1F700C000008D2F9C2F6A
:1007E0000E94AC038FE097E20197F1F700C0000090
:1007F0008D2F9C2FDF91CF910C94C803FC01A08119
:10080000B1814C91248181E090E0BC0102C0660F6F
:10081000771F2A95E2F79B01209524232C93A08132
:10082000B1812C91358101C0880F3A95EAF7809506
:1008300082238C9308950F931F93CF93DF9300D05F
:1008400000D000D0CDB7DEB7942F852F2E833D8307
:10085000109285001092840020E030E048EC52E4D1
:1008600099838A836B837C8369817A818B819C8164
:100870000E94C50620E030E04FE753E469837A83A5
:100880008B839C8369817A818B819C810E94F40790
:1008900069837A838B839C8369817A818B819C8134
:1008A0000E943707462F572F5093890040938800A6
:1008B00020E030E048EC52E409831A838E818B8378
:1008C0008D818C8369817A818B819C810E94C50690
:1008D00020E030E04FE753E469837A838B839C8385
:1008E00069817A818B819C810E94F40769837A8374
:1008F0008B839C8369817A818B819C810E943707DD
:10090000462F572F50938B0040938A00E0E8F0E089
:100910008081816F8083E1E8F0E080818260808364
:100920001092820026960FB6F894DEBF0FBECDBFA0
:10093000DF91CF911F910F91089508958AB18C6333
:100940008AB908955B9808955A980895CF93DF93D4
:10095000D82FC92F0E94A2048D2F9C2FDF91CF91F9
:100960000C94A4045B9A08955A9A0895CF93DF9348
:10097000D82FC92F0E94B2048D2F9C2FDF91CF91C9
:100980000C94B4040F931F93CF93DF9300D000D047
:1009900000D0CDB7DEB78E839D83662309F444C0B3
:1009A000643B09F446C0262F30E050E040E0298344
:1009B0003A834B835C83CA01B9010E9468079B019B
:1009C000AC0160E070EA8CE895E40E94C50669839A
:1009D0007A838B839C8369817A818B819C810E943D
:1009E000370784E6861B282F30E050E040E029835B
:1009F0003A834B835C83CA01B9010E94660700E019
:100A000010E09801462F572FBC018E819D810E94D6
:100A10001B0426960FB6F894DEBF0FBECDBFDF9144
:100A2000CF911F910F91089560E070E088EC92E4FF
:100A3000CECF60E070E080E090E0C9CF84E6861B16
:100A40000895CF93DF9300D000D0CDB7DEB7DC019F
:100A50006D52653278F4E62FF0E0E559F74F0C94CB
:100A6000520640E050E06CED72E44D935D936D935F
:100A70007C9313971092B2008091B00080648093B1
:100A8000B00020E030E040E054E46D917D918D9124
:100A90009C910E94F4079B01AC0160E074E284EF3A
:100AA0009AE40E94C50620E030E040E85FE36983F5
:100AB0007A838B839C8369817A818B819C810E945C
:100AC000580669837A838B839C8369817A818B81C1
:100AD0009C810E9437076093B3000F900F900F9096
:100AE0000F90DF91CF9108954BE754E169EE72E4E6
:100AF000BCCF44EA50EF66EF72E4B7CF4CE55FEC51
:100B000062E073E4B2CF4AE057E96AE073E4ADCF44
:100B10004BE754ED62E173E4A8CF4CE55FE86BE18D
:100B200073E4A3CF4CE55FEC64E273E49ECF49E24B
:100B30005CE96EE273E499CF40E050E069E373E46E
:100B400094CF40E050E064E473E48FCF46E656EA89
:100B50006FE473E48ACF40E050E06CE573E485CF46
:100B60004BE754E169E673E480CF44EA50EF66E76F
:100B700073E47BCF44EA50ED62E873E476CF4AE059
:100B800057E96AE873E471CF4BE754ED62E973E427
:100B90006CCF44EA50E96BE973E467CF44EA50ED67
:100BA00064EA73E462CF41E75DE96EEA73E45DCF26
:100BB00048EB5EEF68EB73E458CF40E050E064EC44
:100BC00073E453CF46E656EA6FEC73E44ECF40E051
:100BD00050E06CED73E449CF4BE754E169EE73E408
:100BE00044CF44EA50EF66EF73E43FCF40E050ED6E
:100BF00062E074E43ACF4EEA57E96AE074E435CF34
:100C00004FE155ED62E174E430CF40E050E96BE133
:100C100074E42BCF44EA50ED64E274E426CF41E75C
:100C20005DE96EE274E421CF4CE55FEF68E374E4C4
:100C30001CCF4CE55FEF63E474E417CF4AE057EA5A
:100C40006FE474E412CF40E050E06CE574E40DCF43
:100C5000E0EBF0E080818F7B80830895CDB7DEB735
:100C6000E2970FB6F894DEBF0FBECDBF87B18B7B86
:100C700087B9CE0101960E945500CE0101960E94CF
:100C8000D602CE018E960E946C03CE018D960E94F4
:100C90009D0490E080E0E2960FB6F894DEBF0FBEB0
:100CA000CDBF0895EE0FFF1F0590F491E02D09943C
:100CB0005058BB27AA270E9470060C94BA070E94BE
:100CC000AC0738F00E94B30720F039F49F3F19F4C5
:100CD00026F40C94A9070EF4E095E7FB0C94A30707
:100CE000E92F0E94CB0758F3BA17620773078407EE
:100CF000950720F079F4A6F50C94ED070EF4E09535
:100D00000B2EBA2FA02D0B01B90190010C01CA01C5
:100D1000A0011124FF27591B99F0593F50F4503E70
:100D200068F11A16F040A22F232F342F4427585F62
:100D3000F3CF469537952795A795F0405395C9F77A
:100D40007EF41F16BA0B620B730B840BBAF0915032
:100D5000A1F0FF0FBB1F661F771F881FC2F70EC0D1
:100D6000BA0F621F731F841F48F4879577956795A4
:100D7000B795F7959E3F08F0B0CF9395880F08F090
:100D80009927EE0F9795879508950E94D9060C94A0
:100D9000BA070E94B30758F00E94AC0740F029F44C
:100DA0005F3F29F00C94A30751110C94EE070C94AB
:100DB000A9070E94CB0768F39923B1F3552391F358
:100DC000951B550BBB27AA2762177307840738F0BA
:100DD0009F5F5F4F220F331F441FAA1FA9F335D017
:100DE0000E2E3AF0E0E832D091505040E695001CCB
:100DF000CAF72BD0FE2F29D0660F771F881FBB1F85
:100E0000261737074807AB07B0E809F0BB0B802D62
:100E1000BF01FF2793585F4F3AF09E3F510578F08E
:100E20000C94A3070C94EE075F3FE4F3983ED4F3D1
:100E3000869577956795B795F7959F5FC9F7880F62
:100E4000911D9695879597F90895E1E0660F771FB4
:100E5000881FBB1F621773078407BA0720F0621B45
:100E6000730B840BBA0BEE1F88F7E09508950E9470
:100E7000D30788F09F5798F0B92F9927B751B0F052
:100E8000E1F0660F771F881F991F1AF0BA95C9F70E
:100E900014C0B13091F00E94ED07B1E008950C94B8
:100EA000ED07672F782F8827B85F39F0B93FCCF36B
:100EB000869577956795B395D9F73EF4909580958B
:100EC000709561957F4F8F4F9F4F0895E89409C0AB
:100ED00097FB3EF490958095709561957F4F8F4F6D
:100EE0009F4F9923A9F0F92F96E9BB279395F69583
:100EF000879577956795B795F111F8CFFAF4BB0F01
:100F000011F460FF1BC06F5F7F4F8F4F9F4F16C064
:100F1000882311F096E911C0772321F09EE8872FEE
:100F2000762F05C0662371F096E8862F70E060E0AA
:100F30002AF09A95660F771F881FDAF7880F969523
:100F4000879597F9089597F99F6780E870E060E0CA
:100F500008959FEF80EC089500240A941616170652
:100F600018060906089500240A941216130614069A
:100F700005060895092E0394000C11F4882352F0FD
:100F8000BB0F40F4BF2B11F460FF04C06F5F7F4FB5
:100F90008F4F9F4F089557FD9058440F551F59F09C
:100FA0005F3F71F04795880F97FB991F61F09F3F56
:100FB00079F087950895121613061406551FF2CF7F
:100FC0004695F1DF08C0161617061806991FF1CFCF
:100FD00086957105610508940895E894BB276627F6
:100FE0007727CB0197F908950E9407080C94BA0758
:100FF0000E94AC0738F00E94B30720F0952311F04F
:101000000C94A3070C94A90711240C94EE070E94DA
:10101000CB0770F3959FC1F3950F50E0551F629F6A
:10102000F001729FBB27F00DB11D639FAA27F00D41
:10103000B11DAA1F649F6627B00DA11D661F829F68
:101040002227B00DA11D621F739FB00DA11D621F4D
:10105000839FA00D611D221F749F3327A00D611D6A
:10106000231F849F600D211D822F762F6A2F11244C
:101070009F5750409AF0F1F088234AF0EE0FFF1F7F
:10108000BB1F661F771F881F91505040A9F79E3FD6
:10109000510580F00C94A3070C94EE075F3FE4F336
:1010A000983ED4F3869577956795B795F795E7952C
:1010B0009F5FC1F7FE2B880F911D9695879597F935
:1010C0000895F894FFCFCA00D900E200E800F100CB
:1010D000FB00FD0002013105740579057E058305DD
:1010E00088058D05920597059C05A105A605AB050C
:1010F000B005B505BA05BF05C405C905CE05D305BC
:10110000D805DD05E205E705EC05F105F605FB056B
:10111000000605060A060F06140619061E06230613
:021120000000CD
:00000001FF
